{
  "_format": "hh-sol-artifact-1",
  "contractName": "AddressDiscovery",
  "sourceName": "src/contracts/AddressDiscovery.sol",
  "abi": [
    {
      "inputs": [
        {
          "internalType": "address",
          "name": "_authority",
          "type": "address"
        },
        {
          "internalType": "address",
          "name": "_admin",
          "type": "address"
        }
      ],
      "stateMutability": "nonpayable",
      "type": "constructor"
    },
    {
      "anonymous": false,
      "inputs": [
        {
          "indexed": true,
          "internalType": "bytes32",
          "name": "role",
          "type": "bytes32"
        },
        {
          "indexed": true,
          "internalType": "bytes32",
          "name": "previousAdminRole",
          "type": "bytes32"
        },
        {
          "indexed": true,
          "internalType": "bytes32",
          "name": "newAdminRole",
          "type": "bytes32"
        }
      ],
      "name": "RoleAdminChanged",
      "type": "event"
    },
    {
      "anonymous": false,
      "inputs": [
        {
          "indexed": true,
          "internalType": "bytes32",
          "name": "role",
          "type": "bytes32"
        },
        {
          "indexed": true,
          "internalType": "address",
          "name": "account",
          "type": "address"
        },
        {
          "indexed": true,
          "internalType": "address",
          "name": "sender",
          "type": "address"
        }
      ],
      "name": "RoleGranted",
      "type": "event"
    },
    {
      "anonymous": false,
      "inputs": [
        {
          "indexed": true,
          "internalType": "bytes32",
          "name": "role",
          "type": "bytes32"
        },
        {
          "indexed": true,
          "internalType": "address",
          "name": "account",
          "type": "address"
        },
        {
          "indexed": true,
          "internalType": "address",
          "name": "sender",
          "type": "address"
        }
      ],
      "name": "RoleRevoked",
      "type": "event"
    },
    {
      "inputs": [],
      "name": "ACCESS_ROLE",
      "outputs": [
        {
          "internalType": "bytes32",
          "name": "",
          "type": "bytes32"
        }
      ],
      "stateMutability": "view",
      "type": "function"
    },
    {
      "inputs": [],
      "name": "DEFAULT_ADMIN_ROLE",
      "outputs": [
        {
          "internalType": "bytes32",
          "name": "",
          "type": "bytes32"
        }
      ],
      "stateMutability": "view",
      "type": "function"
    },
    {
      "inputs": [
        {
          "internalType": "bytes32",
          "name": "",
          "type": "bytes32"
        }
      ],
      "name": "addressDiscovery",
      "outputs": [
        {
          "internalType": "address",
          "name": "",
          "type": "address"
        }
      ],
      "stateMutability": "view",
      "type": "function"
    },
    {
      "inputs": [
        {
          "internalType": "bytes32",
          "name": "role",
          "type": "bytes32"
        }
      ],
      "name": "getRoleAdmin",
      "outputs": [
        {
          "internalType": "bytes32",
          "name": "",
          "type": "bytes32"
        }
      ],
      "stateMutability": "view",
      "type": "function"
    },
    {
      "inputs": [
        {
          "internalType": "bytes32",
          "name": "role",
          "type": "bytes32"
        },
        {
          "internalType": "address",
          "name": "account",
          "type": "address"
        }
      ],
      "name": "grantRole",
      "outputs": [],
      "stateMutability": "nonpayable",
      "type": "function"
    },
    {
      "inputs": [
        {
          "internalType": "bytes32",
          "name": "role",
          "type": "bytes32"
        },
        {
          "internalType": "address",
          "name": "account",
          "type": "address"
        }
      ],
      "name": "hasRole",
      "outputs": [
        {
          "internalType": "bool",
          "name": "",
          "type": "bool"
        }
      ],
      "stateMutability": "view",
      "type": "function"
    },
    {
      "inputs": [
        {
          "internalType": "bytes32",
          "name": "role",
          "type": "bytes32"
        },
        {
          "internalType": "address",
          "name": "account",
          "type": "address"
        }
      ],
      "name": "renounceRole",
      "outputs": [],
      "stateMutability": "nonpayable",
      "type": "function"
    },
    {
      "inputs": [
        {
          "internalType": "bytes32",
          "name": "role",
          "type": "bytes32"
        },
        {
          "internalType": "address",
          "name": "account",
          "type": "address"
        }
      ],
      "name": "revokeRole",
      "outputs": [],
      "stateMutability": "nonpayable",
      "type": "function"
    },
    {
      "inputs": [
        {
          "internalType": "bytes4",
          "name": "interfaceId",
          "type": "bytes4"
        }
      ],
      "name": "supportsInterface",
      "outputs": [
        {
          "internalType": "bool",
          "name": "",
          "type": "bool"
        }
      ],
      "stateMutability": "view",
      "type": "function"
    },
    {
      "inputs": [
        {
          "internalType": "bytes32",
          "name": "smartContract",
          "type": "bytes32"
        },
        {
          "internalType": "address",
          "name": "newAddress",
          "type": "address"
        }
      ],
      "name": "updateAddress",
      "outputs": [],
      "stateMutability": "nonpayable",
      "type": "function"
    }
  ],
  "bytecode": "0x608060405234801561001057600080fd5b50604051610ad9380380610ad983398101604081905261002f916101bb565b6040516001600160601b0319606084901b16602082015261007e90600080516020610ab983398151915290603401604051602081830303815290604052805190602001206100a860201b60201c565b6100896000826100f3565b6100a1600080516020610ab9833981519152836100f3565b50506101ee565b600082815260208190526040808220600101805490849055905190918391839186917fbd79b86ffe0ab8e8776151514217cd7cacd52c909f66475c3af44e129f0b00ff9190a4505050565b6100fd8282610101565b5050565b6000828152602081815260408083206001600160a01b038516845290915290205460ff166100fd576000828152602081815260408083206001600160a01b03851684529091529020805460ff1916600117905561015b3390565b6001600160a01b0316816001600160a01b0316837f2f8788117e7eff1d82e926ec794901d17c78024a50270940304540a733656f0d60405160405180910390a45050565b80516001600160a01b03811681146101b657600080fd5b919050565b600080604083850312156101ce57600080fd5b6101d78361019f565b91506101e56020840161019f565b90509250929050565b6108bc806101fd6000396000f3fe608060405234801561001057600080fd5b506004361061009e5760003560e01c806340129a401161006657806340129a401461016557806356b855aa1461017857806391d148541461019f578063a217fddf146101b2578063d547741f146101ba57600080fd5b806301ffc9a7146100a3578063118c894b146100cb578063248a9ca31461010c5780632f2ff15d1461013d57806336568abe14610152575b600080fd5b6100b66100b13660046106b8565b6101cd565b60405190151581526020015b60405180910390f35b6100f46100d93660046106e2565b6001602052600090815260409020546001600160a01b031681565b6040516001600160a01b0390911681526020016100c2565b61012f61011a3660046106e2565b60009081526020819052604090206001015490565b6040519081526020016100c2565b61015061014b3660046106fb565b610204565b005b6101506101603660046106fb565b61022e565b6101506101733660046106fb565b6102b1565b61012f7f7def632d64a7259044c921303d544f945a340c8d4334adc0e0bd830a54deb52881565b6100b66101ad3660046106fb565b610366565b61012f600081565b6101506101c83660046106fb565b61038f565b60006001600160e01b03198216637965db0b60e01b14806101fe57506301ffc9a760e01b6001600160e01b03198316145b92915050565b60008281526020819052604090206001015461021f816103b4565b61022983836103c1565b505050565b6001600160a01b03811633146102a35760405162461bcd60e51b815260206004820152602f60248201527f416363657373436f6e74726f6c3a2063616e206f6e6c792072656e6f756e636560448201526e103937b632b9903337b91039b2b63360891b60648201526084015b60405180910390fd5b6102ad8282610445565b5050565b6102db7f7def632d64a7259044c921303d544f945a340c8d4334adc0e0bd830a54deb52833610366565b6103385760405162461bcd60e51b815260206004820152602860248201527f4f6e6c792074686520617574686f726974792063616e20757064617465206164604482015267323932b9b9b2b99760c11b606482015260840161029a565b60009182526001602052604090912080546001600160a01b0319166001600160a01b03909216919091179055565b6000918252602082815260408084206001600160a01b0393909316845291905290205460ff1690565b6000828152602081905260409020600101546103aa816103b4565b6102298383610445565b6103be81336104aa565b50565b6103cb8282610366565b6102ad576000828152602081815260408083206001600160a01b03851684529091529020805460ff191660011790556104013390565b6001600160a01b0316816001600160a01b0316837f2f8788117e7eff1d82e926ec794901d17c78024a50270940304540a733656f0d60405160405180910390a45050565b61044f8282610366565b156102ad576000828152602081815260408083206001600160a01b0385168085529252808320805460ff1916905551339285917ff6391f5c32d9c69d2a47ea670b442974b53935d1edc7fd64eb21e047a839171b9190a45050565b6104b48282610366565b6102ad576104c181610503565b6104cc836020610515565b6040516020016104dd92919061075b565b60408051601f198184030181529082905262461bcd60e51b825261029a916004016107d0565b60606101fe6001600160a01b03831660145b60606000610524836002610819565b61052f906002610830565b67ffffffffffffffff81111561054757610547610843565b6040519080825280601f01601f191660200182016040528015610571576020820181803683370190505b509050600360fc1b8160008151811061058c5761058c610859565b60200101906001600160f81b031916908160001a905350600f60fb1b816001815181106105bb576105bb610859565b60200101906001600160f81b031916908160001a90535060006105df846002610819565b6105ea906001610830565b90505b6001811115610662576f181899199a1a9b1b9c1cb0b131b232b360811b85600f166010811061061e5761061e610859565b1a60f81b82828151811061063457610634610859565b60200101906001600160f81b031916908160001a90535060049490941c9361065b8161086f565b90506105ed565b5083156106b15760405162461bcd60e51b815260206004820181905260248201527f537472696e67733a20686578206c656e67746820696e73756666696369656e74604482015260640161029a565b9392505050565b6000602082840312156106ca57600080fd5b81356001600160e01b0319811681146106b157600080fd5b6000602082840312156106f457600080fd5b5035919050565b6000806040838503121561070e57600080fd5b8235915060208301356001600160a01b038116811461072c57600080fd5b809150509250929050565b60005b8381101561075257818101518382015260200161073a565b50506000910152565b7f416363657373436f6e74726f6c3a206163636f756e7420000000000000000000815260008351610793816017850160208801610737565b7001034b99036b4b9b9b4b733903937b6329607d1b60179184019182015283516107c4816028840160208801610737565b01602801949350505050565b60208152600082518060208401526107ef816040850160208701610737565b601f01601f19169190910160400192915050565b634e487b7160e01b600052601160045260246000fd5b80820281158282048414176101fe576101fe610803565b808201808211156101fe576101fe610803565b634e487b7160e01b600052604160045260246000fd5b634e487b7160e01b600052603260045260246000fd5b60008161087e5761087e610803565b50600019019056fea2646970667358221220aff4a24c92466bb015031f43dcf1041ec9a807737bc767526192af6fd6d49dec64736f6c634300081300337def632d64a7259044c921303d544f945a340c8d4334adc0e0bd830a54deb528",
  "linkReferences": {},
  "deployedLinkReferences": {}
}