{
  "_format": "hh-sol-artifact-1",
  "contractName": "RealTokenizado",
  "sourceName": "src/contracts/RealTokenizado.sol",
  "abi": [
    {
      "inputs": [
        {
          "internalType": "string",
          "name": "_name",
          "type": "string"
        },
        {
          "internalType": "string",
          "name": "_symbol",
          "type": "string"
        },
        {
          "internalType": "address",
          "name": "_authority",
          "type": "address"
        },
        {
          "internalType": "address",
          "name": "_admin",
          "type": "address"
        },
        {
          "internalType": "string",
          "name": "_participant",
          "type": "string"
        },
        {
          "internalType": "uint256",
          "name": "_cnpj8",
          "type": "uint256"
        },
        {
          "internalType": "address",
          "name": "_reserve",
          "type": "address"
        }
      ],
      "stateMutability": "nonpayable",
      "type": "constructor"
    },
    {
      "anonymous": false,
      "inputs": [
        {
          "indexed": true,
          "internalType": "address",
          "name": "owner",
          "type": "address"
        },
        {
          "indexed": true,
          "internalType": "address",
          "name": "spender",
          "type": "address"
        },
        {
          "indexed": false,
          "internalType": "uint256",
          "name": "value",
          "type": "uint256"
        }
      ],
      "name": "Approval",
      "type": "event"
    },
    {
      "anonymous": false,
      "inputs": [
        {
          "indexed": true,
          "internalType": "address",
          "name": "member",
          "type": "address"
        }
      ],
      "name": "DisabledAccount",
      "type": "event"
    },
    {
      "anonymous": false,
      "inputs": [
        {
          "indexed": true,
          "internalType": "address",
          "name": "member",
          "type": "address"
        }
      ],
      "name": "EnabledAccount",
      "type": "event"
    },
    {
      "anonymous": false,
      "inputs": [
        {
          "indexed": false,
          "internalType": "address",
          "name": "wallet",
          "type": "address"
        },
        {
          "indexed": false,
          "internalType": "uint256",
          "name": "amount",
          "type": "uint256"
        }
      ],
      "name": "FrozenBalance",
      "type": "event"
    },
    {
      "anonymous": false,
      "inputs": [
        {
          "indexed": false,
          "internalType": "address",
          "name": "account",
          "type": "address"
        }
      ],
      "name": "Paused",
      "type": "event"
    },
    {
      "anonymous": false,
      "inputs": [
        {
          "indexed": true,
          "internalType": "bytes32",
          "name": "role",
          "type": "bytes32"
        },
        {
          "indexed": true,
          "internalType": "bytes32",
          "name": "previousAdminRole",
          "type": "bytes32"
        },
        {
          "indexed": true,
          "internalType": "bytes32",
          "name": "newAdminRole",
          "type": "bytes32"
        }
      ],
      "name": "RoleAdminChanged",
      "type": "event"
    },
    {
      "anonymous": false,
      "inputs": [
        {
          "indexed": true,
          "internalType": "bytes32",
          "name": "role",
          "type": "bytes32"
        },
        {
          "indexed": true,
          "internalType": "address",
          "name": "account",
          "type": "address"
        },
        {
          "indexed": true,
          "internalType": "address",
          "name": "sender",
          "type": "address"
        }
      ],
      "name": "RoleGranted",
      "type": "event"
    },
    {
      "anonymous": false,
      "inputs": [
        {
          "indexed": true,
          "internalType": "bytes32",
          "name": "role",
          "type": "bytes32"
        },
        {
          "indexed": true,
          "internalType": "address",
          "name": "account",
          "type": "address"
        },
        {
          "indexed": true,
          "internalType": "address",
          "name": "sender",
          "type": "address"
        }
      ],
      "name": "RoleRevoked",
      "type": "event"
    },
    {
      "anonymous": false,
      "inputs": [
        {
          "indexed": true,
          "internalType": "address",
          "name": "from",
          "type": "address"
        },
        {
          "indexed": true,
          "internalType": "address",
          "name": "to",
          "type": "address"
        },
        {
          "indexed": false,
          "internalType": "uint256",
          "name": "value",
          "type": "uint256"
        }
      ],
      "name": "Transfer",
      "type": "event"
    },
    {
      "anonymous": false,
      "inputs": [
        {
          "indexed": false,
          "internalType": "address",
          "name": "account",
          "type": "address"
        }
      ],
      "name": "Unpaused",
      "type": "event"
    },
    {
      "inputs": [],
      "name": "ACCESS_ROLE",
      "outputs": [
        {
          "internalType": "bytes32",
          "name": "",
          "type": "bytes32"
        }
      ],
      "stateMutability": "view",
      "type": "function"
    },
    {
      "inputs": [],
      "name": "BURNER_ROLE",
      "outputs": [
        {
          "internalType": "bytes32",
          "name": "",
          "type": "bytes32"
        }
      ],
      "stateMutability": "view",
      "type": "function"
    },
    {
      "inputs": [],
      "name": "DEFAULT_ADMIN_ROLE",
      "outputs": [
        {
          "internalType": "bytes32",
          "name": "",
          "type": "bytes32"
        }
      ],
      "stateMutability": "view",
      "type": "function"
    },
    {
      "inputs": [],
      "name": "FREEZER_ROLE",
      "outputs": [
        {
          "internalType": "bytes32",
          "name": "",
          "type": "bytes32"
        }
      ],
      "stateMutability": "view",
      "type": "function"
    },
    {
      "inputs": [],
      "name": "MINTER_ROLE",
      "outputs": [
        {
          "internalType": "bytes32",
          "name": "",
          "type": "bytes32"
        }
      ],
      "stateMutability": "view",
      "type": "function"
    },
    {
      "inputs": [],
      "name": "MOVER_ROLE",
      "outputs": [
        {
          "internalType": "bytes32",
          "name": "",
          "type": "bytes32"
        }
      ],
      "stateMutability": "view",
      "type": "function"
    },
    {
      "inputs": [],
      "name": "PAUSER_ROLE",
      "outputs": [
        {
          "internalType": "bytes32",
          "name": "",
          "type": "bytes32"
        }
      ],
      "stateMutability": "view",
      "type": "function"
    },
    {
      "inputs": [
        {
          "internalType": "address",
          "name": "owner",
          "type": "address"
        },
        {
          "internalType": "address",
          "name": "spender",
          "type": "address"
        }
      ],
      "name": "allowance",
      "outputs": [
        {
          "internalType": "uint256",
          "name": "",
          "type": "uint256"
        }
      ],
      "stateMutability": "view",
      "type": "function"
    },
    {
      "inputs": [
        {
          "internalType": "address",
          "name": "spender",
          "type": "address"
        },
        {
          "internalType": "uint256",
          "name": "amount",
          "type": "uint256"
        }
      ],
      "name": "approve",
      "outputs": [
        {
          "internalType": "bool",
          "name": "",
          "type": "bool"
        }
      ],
      "stateMutability": "nonpayable",
      "type": "function"
    },
    {
      "inputs": [
        {
          "internalType": "address",
          "name": "account",
          "type": "address"
        }
      ],
      "name": "balanceOf",
      "outputs": [
        {
          "internalType": "uint256",
          "name": "",
          "type": "uint256"
        }
      ],
      "stateMutability": "view",
      "type": "function"
    },
    {
      "inputs": [
        {
          "internalType": "uint256",
          "name": "amount",
          "type": "uint256"
        }
      ],
      "name": "burn",
      "outputs": [],
      "stateMutability": "nonpayable",
      "type": "function"
    },
    {
      "inputs": [
        {
          "internalType": "address",
          "name": "account",
          "type": "address"
        },
        {
          "internalType": "uint256",
          "name": "amount",
          "type": "uint256"
        }
      ],
      "name": "burnFrom",
      "outputs": [],
      "stateMutability": "nonpayable",
      "type": "function"
    },
    {
      "inputs": [],
      "name": "cnpj8",
      "outputs": [
        {
          "internalType": "uint256",
          "name": "",
          "type": "uint256"
        }
      ],
      "stateMutability": "view",
      "type": "function"
    },
    {
      "inputs": [],
      "name": "decimals",
      "outputs": [
        {
          "internalType": "uint8",
          "name": "",
          "type": "uint8"
        }
      ],
      "stateMutability": "view",
      "type": "function"
    },
    {
      "inputs": [
        {
          "internalType": "address",
          "name": "spender",
          "type": "address"
        },
        {
          "internalType": "uint256",
          "name": "subtractedValue",
          "type": "uint256"
        }
      ],
      "name": "decreaseAllowance",
      "outputs": [
        {
          "internalType": "bool",
          "name": "",
          "type": "bool"
        }
      ],
      "stateMutability": "nonpayable",
      "type": "function"
    },
    {
      "inputs": [
        {
          "internalType": "address",
          "name": "from",
          "type": "address"
        },
        {
          "internalType": "uint256",
          "name": "amount",
          "type": "uint256"
        }
      ],
      "name": "decreaseFrozenBalance",
      "outputs": [],
      "stateMutability": "nonpayable",
      "type": "function"
    },
    {
      "inputs": [
        {
          "internalType": "address",
          "name": "member",
          "type": "address"
        }
      ],
      "name": "disableAccount",
      "outputs": [],
      "stateMutability": "nonpayable",
      "type": "function"
    },
    {
      "inputs": [
        {
          "internalType": "address",
          "name": "member",
          "type": "address"
        }
      ],
      "name": "enableAccount",
      "outputs": [],
      "stateMutability": "nonpayable",
      "type": "function"
    },
    {
      "inputs": [
        {
          "internalType": "address",
          "name": "wallet",
          "type": "address"
        }
      ],
      "name": "frozenBalanceOf",
      "outputs": [
        {
          "internalType": "uint256",
          "name": "",
          "type": "uint256"
        }
      ],
      "stateMutability": "view",
      "type": "function"
    },
    {
      "inputs": [
        {
          "internalType": "bytes32",
          "name": "role",
          "type": "bytes32"
        }
      ],
      "name": "getRoleAdmin",
      "outputs": [
        {
          "internalType": "bytes32",
          "name": "",
          "type": "bytes32"
        }
      ],
      "stateMutability": "view",
      "type": "function"
    },
    {
      "inputs": [
        {
          "internalType": "bytes32",
          "name": "role",
          "type": "bytes32"
        },
        {
          "internalType": "address",
          "name": "account",
          "type": "address"
        }
      ],
      "name": "grantRole",
      "outputs": [],
      "stateMutability": "nonpayable",
      "type": "function"
    },
    {
      "inputs": [
        {
          "internalType": "bytes32",
          "name": "role",
          "type": "bytes32"
        },
        {
          "internalType": "address",
          "name": "account",
          "type": "address"
        }
      ],
      "name": "hasRole",
      "outputs": [
        {
          "internalType": "bool",
          "name": "",
          "type": "bool"
        }
      ],
      "stateMutability": "view",
      "type": "function"
    },
    {
      "inputs": [
        {
          "internalType": "address",
          "name": "spender",
          "type": "address"
        },
        {
          "internalType": "uint256",
          "name": "addedValue",
          "type": "uint256"
        }
      ],
      "name": "increaseAllowance",
      "outputs": [
        {
          "internalType": "bool",
          "name": "",
          "type": "bool"
        }
      ],
      "stateMutability": "nonpayable",
      "type": "function"
    },
    {
      "inputs": [
        {
          "internalType": "address",
          "name": "from",
          "type": "address"
        },
        {
          "internalType": "uint256",
          "name": "amount",
          "type": "uint256"
        }
      ],
      "name": "increaseFrozenBalance",
      "outputs": [],
      "stateMutability": "nonpayable",
      "type": "function"
    },
    {
      "inputs": [
        {
          "internalType": "address",
          "name": "to",
          "type": "address"
        },
        {
          "internalType": "uint256",
          "name": "amount",
          "type": "uint256"
        }
      ],
      "name": "mint",
      "outputs": [],
      "stateMutability": "nonpayable",
      "type": "function"
    },
    {
      "inputs": [
        {
          "internalType": "address",
          "name": "from",
          "type": "address"
        },
        {
          "internalType": "address",
          "name": "to",
          "type": "address"
        },
        {
          "internalType": "uint256",
          "name": "amount",
          "type": "uint256"
        }
      ],
      "name": "move",
      "outputs": [],
      "stateMutability": "nonpayable",
      "type": "function"
    },
    {
      "inputs": [
        {
          "internalType": "address",
          "name": "from",
          "type": "address"
        },
        {
          "internalType": "uint256",
          "name": "amount",
          "type": "uint256"
        }
      ],
      "name": "moveAndBurn",
      "outputs": [],
      "stateMutability": "nonpayable",
      "type": "function"
    },
    {
      "inputs": [],
      "name": "name",
      "outputs": [
        {
          "internalType": "string",
          "name": "",
          "type": "string"
        }
      ],
      "stateMutability": "view",
      "type": "function"
    },
    {
      "inputs": [],
      "name": "participant",
      "outputs": [
        {
          "internalType": "string",
          "name": "",
          "type": "string"
        }
      ],
      "stateMutability": "view",
      "type": "function"
    },
    {
      "inputs": [],
      "name": "pause",
      "outputs": [],
      "stateMutability": "nonpayable",
      "type": "function"
    },
    {
      "inputs": [],
      "name": "paused",
      "outputs": [
        {
          "internalType": "bool",
          "name": "",
          "type": "bool"
        }
      ],
      "stateMutability": "view",
      "type": "function"
    },
    {
      "inputs": [
        {
          "internalType": "bytes32",
          "name": "role",
          "type": "bytes32"
        },
        {
          "internalType": "address",
          "name": "account",
          "type": "address"
        }
      ],
      "name": "renounceRole",
      "outputs": [],
      "stateMutability": "nonpayable",
      "type": "function"
    },
    {
      "inputs": [],
      "name": "reserve",
      "outputs": [
        {
          "internalType": "address",
          "name": "",
          "type": "address"
        }
      ],
      "stateMutability": "view",
      "type": "function"
    },
    {
      "inputs": [
        {
          "internalType": "bytes32",
          "name": "role",
          "type": "bytes32"
        },
        {
          "internalType": "address",
          "name": "account",
          "type": "address"
        }
      ],
      "name": "revokeRole",
      "outputs": [],
      "stateMutability": "nonpayable",
      "type": "function"
    },
    {
      "inputs": [
        {
          "internalType": "bytes4",
          "name": "interfaceId",
          "type": "bytes4"
        }
      ],
      "name": "supportsInterface",
      "outputs": [
        {
          "internalType": "bool",
          "name": "",
          "type": "bool"
        }
      ],
      "stateMutability": "view",
      "type": "function"
    },
    {
      "inputs": [],
      "name": "symbol",
      "outputs": [
        {
          "internalType": "string",
          "name": "",
          "type": "string"
        }
      ],
      "stateMutability": "view",
      "type": "function"
    },
    {
      "inputs": [],
      "name": "totalSupply",
      "outputs": [
        {
          "internalType": "uint256",
          "name": "",
          "type": "uint256"
        }
      ],
      "stateMutability": "view",
      "type": "function"
    },
    {
      "inputs": [
        {
          "internalType": "address",
          "name": "to",
          "type": "address"
        },
        {
          "internalType": "uint256",
          "name": "amount",
          "type": "uint256"
        }
      ],
      "name": "transfer",
      "outputs": [
        {
          "internalType": "bool",
          "name": "",
          "type": "bool"
        }
      ],
      "stateMutability": "nonpayable",
      "type": "function"
    },
    {
      "inputs": [
        {
          "internalType": "address",
          "name": "from",
          "type": "address"
        },
        {
          "internalType": "address",
          "name": "to",
          "type": "address"
        },
        {
          "internalType": "uint256",
          "name": "amount",
          "type": "uint256"
        }
      ],
      "name": "transferFrom",
      "outputs": [
        {
          "internalType": "bool",
          "name": "",
          "type": "bool"
        }
      ],
      "stateMutability": "nonpayable",
      "type": "function"
    },
    {
      "inputs": [],
      "name": "unpause",
      "outputs": [],
      "stateMutability": "nonpayable",
      "type": "function"
    },
    {
      "inputs": [
        {
          "internalType": "address",
          "name": "newReserve",
          "type": "address"
        }
      ],
      "name": "updateReserve",
      "outputs": [],
      "stateMutability": "nonpayable",
      "type": "function"
    },
    {
      "inputs": [
        {
          "internalType": "address",
          "name": "account",
          "type": "address"
        }
      ],
      "name": "verifyAccount",
      "outputs": [
        {
          "internalType": "bool",
          "name": "",
          "type": "bool"
        }
      ],
      "stateMutability": "view",
      "type": "function"
    }
  ],
  "bytecode": "0x60806040523480156200001157600080fd5b50604051620024c3380380620024c38339810160408190526200003491620003ed565b868686868181858560036200004a83826200054f565b5060046200005982826200054f565b506200006b915060009050826200020c565b620000977f7def632d64a7259044c921303d544f945a340c8d4334adc0e0bd830a54deb528836200020c565b620000c37f9f2df0fed2c77648de5860a4cc508cd0818c85b8b8a1ab4ceeef8d981c8956a6836200020c565b620000ef7f3c11d16cbaffd01df69ce1c404f6340ee057498f5f00246190ea54220576a848836200020c565b6200011b7fe5ed70e23144309ce456cb48bf5e6d0d8e160f094a6d65ecf1d5b03cf292d8e6836200020c565b620001477f92de27771f92d6942691d73358b3a4673e4880de8356f8f2cf452be87e02d363836200020c565b620001737f65d7a28e3265b37a6474929f336521b332c1681b933f6cb9f3376673440d862a826200020c565b6040516001600160601b0319606083901b16602082015260009060340160408051601f1981840301815291905280516020909101209050620001b76000826200021c565b50506007805460ff191690555060099350620001da92508691508390506200054f565b50600a91909155600b80546001600160a01b0319166001600160a01b03909216919091179055506200061b9350505050565b62000218828262000267565b5050565b600082815260056020526040808220600101805490849055905190918391839186917fbd79b86ffe0ab8e8776151514217cd7cacd52c909f66475c3af44e129f0b00ff9190a4505050565b60008281526005602090815260408083206001600160a01b038516845290915290205460ff16620002185760008281526005602090815260408083206001600160a01b03851684529091529020805460ff19166001179055620002c73390565b6001600160a01b0316816001600160a01b0316837f2f8788117e7eff1d82e926ec794901d17c78024a50270940304540a733656f0d60405160405180910390a45050565b634e487b7160e01b600052604160045260246000fd5b600082601f8301126200033357600080fd5b81516001600160401b03808211156200035057620003506200030b565b604051601f8301601f19908116603f011681019082821181831017156200037b576200037b6200030b565b816040528381526020925086838588010111156200039857600080fd5b600091505b83821015620003bc57858201830151818301840152908201906200039d565b600093810190920192909252949350505050565b80516001600160a01b0381168114620003e857600080fd5b919050565b600080600080600080600060e0888a0312156200040957600080fd5b87516001600160401b03808211156200042157600080fd5b6200042f8b838c0162000321565b985060208a01519150808211156200044657600080fd5b620004548b838c0162000321565b97506200046460408b01620003d0565b96506200047460608b01620003d0565b955060808a01519150808211156200048b57600080fd5b506200049a8a828b0162000321565b93505060a08801519150620004b260c08901620003d0565b905092959891949750929550565b600181811c90821680620004d557607f821691505b602082108103620004f657634e487b7160e01b600052602260045260246000fd5b50919050565b601f8211156200054a57600081815260208120601f850160051c81016020861015620005255750805b601f850160051c820191505b81811015620005465782815560010162000531565b5050505b505050565b81516001600160401b038111156200056b576200056b6200030b565b62000583816200057c8454620004c0565b84620004fc565b602080601f831160018114620005bb5760008415620005a25750858301515b600019600386901b1c1916600185901b17855562000546565b600085815260208120601f198616915b82811015620005ec57888601518255948401946001909101908401620005cb565b50858210156200060b5787850151600019600388901b60f8161c191681555b5050505050600190811b01905550565b611e98806200062b6000396000f3fe608060405234801561001057600080fd5b506004361061025e5760003560e01c806370a0823111610146578063b4a4ed39116100c3578063d547741f11610087578063d547741f146105a0578063dd62ed3e146105b3578063e63ab1e9146105c6578063ee742b6b146105ed578063f16dfbe914610600578063ffa8e9ab1461061357600080fd5b8063b4a4ed39146104ff578063bb35783b14610512578063be91de5314610525578063cd3293de1461054e578063d53913931461057957600080fd5b806391d148541161010a57806391d14854146104b657806395d89b41146104c9578063a217fddf146104d1578063a457c2d7146104d9578063a9059cbb146104ec57600080fd5b806370a082311461044c57806379cc6790146104755780638456cb591461048857806384b61581146104905780638c79ba3a146104a357600080fd5b80632b218c6a116101df57806339509351116101a357806339509351146103d95780633f4ba83a146103ec57806340c10f19146103f457806342966c681461040757806356b855aa1461041a5780635c975abb1461044157600080fd5b80632b218c6a146103895780632f2ff15d1461039c578063313ce567146103af57806336568abe146103be57806337a6d42b146103d157600080fd5b80631a3f5152116102265780631a3f5152146102f057806323b872dd14610305578063248a9ca314610318578063282c51f31461033b578063286041bd1461036257600080fd5b806301ffc9a71461026357806306a85f0f1461028b57806306fdde03146102c0578063095ea7b3146102d557806318160ddd146102e8575b600080fd5b610276610271366004611b43565b61061c565b60405190151581526020015b60405180910390f35b6102b27f92de27771f92d6942691d73358b3a4673e4880de8356f8f2cf452be87e02d36381565b604051908152602001610282565b6102c8610653565b6040516102829190611b91565b6102766102e3366004611be0565b6106e5565b6002546102b2565b6103036102fe366004611be0565b61075d565b005b610276610313366004611c0a565b6107a9565b6102b2610326366004611c46565b60009081526005602052604090206001015490565b6102b27f3c11d16cbaffd01df69ce1c404f6340ee057498f5f00246190ea54220576a84881565b6102b27fe5ed70e23144309ce456cb48bf5e6d0d8e160f094a6d65ecf1d5b03cf292d8e681565b610303610397366004611be0565b610879565b6103036103aa366004611c5f565b61092e565b60405160028152602001610282565b6103036103cc366004611c5f565b610953565b6102c86109d1565b6102766103e7366004611be0565b610a5f565b610303610ad3565b610303610402366004611be0565b610b10565b610303610415366004611c46565b610b77565b6102b27f7def632d64a7259044c921303d544f945a340c8d4334adc0e0bd830a54deb52881565b60075460ff16610276565b6102b261045a366004611c8b565b6001600160a01b031660009081526020819052604090205490565b610303610483366004611be0565b610bb3565b610303610be8565b61030361049e366004611c8b565b610c22565b6103036104b1366004611c8b565b610cf2565b6102766104c4366004611c5f565b610dc0565b6102c8610deb565b6102b2600081565b6102766104e7366004611be0565b610dfa565b6102766104fa366004611be0565b610e81565b61030361050d366004611be0565b610eeb565b610303610520366004611c0a565b610fad565b6102b2610533366004611c8b565b6001600160a01b031660009081526008602052604090205490565b600b54610561906001600160a01b031681565b6040516001600160a01b039091168152602001610282565b6102b27f9f2df0fed2c77648de5860a4cc508cd0818c85b8b8a1ab4ceeef8d981c8956a681565b6103036105ae366004611c5f565b610fea565b6102b26105c1366004611ca6565b61100f565b6102b27f65d7a28e3265b37a6474929f336521b332c1681b933f6cb9f3376673440d862a81565b6103036105fb366004611c8b565b61103a565b61027661060e366004611c8b565b611068565b6102b2600a5481565b60006001600160e01b03198216637965db0b60e01b148061064d57506301ffc9a760e01b6001600160e01b03198316145b92915050565b60606003805461066290611cd0565b80601f016020809104026020016040519081016040528092919081815260200182805461068e90611cd0565b80156106db5780601f106106b0576101008083540402835291602001916106db565b820191906000526020600020905b8154815290600101906020018083116106be57829003601f168201915b5050505050905090565b60006106ef611086565b6106f833611068565b6107495760405162461bcd60e51b815260206004820181905260248201527f53656e646572206163636f756e74206973206e6f7420617574686f72697a656460448201526064015b60405180910390fd5b6107543384846110ce565b50600192915050565b610765611086565b7fe5ed70e23144309ce456cb48bf5e6d0d8e160f094a6d65ecf1d5b03cf292d8e661078f816111f2565b61079a8330846111fc565b6107a430836113ab565b505050565b60006107b3611086565b6107bc84611068565b80156107cc57506107cc83611068565b61082c5760405162461bcd60e51b815260206004820152602b60248201527f4569746865722066726f6d206f7220746f206163636f756e74206973206e6f7460448201526a08185d5d1a1bdc9a5e995960aa1b6064820152608401610740565b6108378484846111fc565b61086f843361086a85604051806060016040528060288152602001611e16602891396108638a3361100f565b91906114e9565b6110ce565b5060019392505050565b610881611086565b7f92de27771f92d6942691d73358b3a4673e4880de8356f8f2cf452be87e02d3636108ab816111f2565b6001600160a01b038316600090815260086020526040812080548492906108d3908490611d20565b90915550506001600160a01b038316600081815260086020908152604091829020548251938452908301527fd2dc74064ce9979876047afc7922931592038bce8a7fbaf28417799c138e4e4d910160405180910390a1505050565b600082815260056020526040902060010154610949816111f2565b6107a48383611515565b6001600160a01b03811633146109c35760405162461bcd60e51b815260206004820152602f60248201527f416363657373436f6e74726f6c3a2063616e206f6e6c792072656e6f756e636560448201526e103937b632b9903337b91039b2b63360891b6064820152608401610740565b6109cd828261159b565b5050565b600980546109de90611cd0565b80601f0160208091040260200160405190810160405280929190818152602001828054610a0a90611cd0565b8015610a575780601f10610a2c57610100808354040283529160200191610a57565b820191906000526020600020905b815481529060010190602001808311610a3a57829003601f168201915b505050505081565b6000610a69611086565b610a7233611068565b610aba5760405162461bcd60e51b81526020600482015260196024820152781058d8dbdd5b9d081a5cc81b9bdd08185d5d1a1bdc9a5e9959603a1b6044820152606401610740565b610754338461086a85610acd338961100f565b90611602565b610adb611615565b7f65d7a28e3265b37a6474929f336521b332c1681b933f6cb9f3376673440d862a610b05816111f2565b610b0d61165e565b50565b610b18611086565b7f9f2df0fed2c77648de5860a4cc508cd0818c85b8b8a1ab4ceeef8d981c8956a6610b42816111f2565b600082610b4f853361100f565b610b599190611d20565b9050610b6784335b836110ce565b610b7184846116b0565b50505050565b7f3c11d16cbaffd01df69ce1c404f6340ee057498f5f00246190ea54220576a848610ba1816111f2565b610ba9611086565b6109cd33836113ab565b610bbb611086565b600081610bc8843361100f565b610bd29190611d33565b9050610bde8333610b61565b6107a483836113ab565b610bf0611086565b7f65d7a28e3265b37a6474929f336521b332c1681b933f6cb9f3376673440d862a610c1a816111f2565b610b0d61177b565b610c4c7f7def632d64a7259044c921303d544f945a340c8d4334adc0e0bd830a54deb52833610dc0565b610ca65760405162461bcd60e51b815260206004820152602560248201527f4f6e6c792074686520617574686f726974792063616e20656e61626c6520616360448201526418dbdd5b9d60da1b6064820152608401610740565b6001600160a01b038116600081815260066020526040808220805460ff19166001179055517f0211b3717a1e4e9d5dbd306d57337bd16341444ff1a3ca9d920060322b1aa6409190a250565b610d1c7f7def632d64a7259044c921303d544f945a340c8d4334adc0e0bd830a54deb52833610dc0565b610d775760405162461bcd60e51b815260206004820152602660248201527f4f6e6c792074686520617574686f726974792063616e2064697361626c65206160448201526518d8dbdd5b9d60d21b6064820152608401610740565b6001600160a01b038116600081815260066020526040808220805460ff19169055517fa1505d69e69c406db19c16f3ec0bf25ae47eefb6ae68ab936d75df946fcd14cf9190a250565b60009182526005602090815260408084206001600160a01b0393909316845291905290205460ff1690565b60606004805461066290611cd0565b6000610e04611086565b610e0d33611068565b610e555760405162461bcd60e51b81526020600482015260196024820152781058d8dbdd5b9d081a5cc81b9bdd08185d5d1a1bdc9a5e9959603a1b6044820152606401610740565b610754338461086a85604051806060016040528060258152602001611e3e60259139610863338a61100f565b6000610e8b611086565b610e9433611068565b610ee05760405162461bcd60e51b815260206004820181905260248201527f53656e646572206163636f756e74206973206e6f7420617574686f72697a65646044820152606401610740565b6107543384846111fc565b610ef3611086565b7f92de27771f92d6942691d73358b3a4673e4880de8356f8f2cf452be87e02d363610f1d816111f2565b6001600160a01b038316600090815260086020526040902054821115610f855760405162461bcd60e51b815260206004820152601c60248201527f46726f7a656e2062616c616e6365206973206e6f7420656e6f756768000000006044820152606401610740565b6001600160a01b038316600090815260086020526040812080548492906108d3908490611d33565b610fb5611086565b7fe5ed70e23144309ce456cb48bf5e6d0d8e160f094a6d65ecf1d5b03cf292d8e6610fdf816111f2565b610b718484846111fc565b600082815260056020526040902060010154611005816111f2565b6107a4838361159b565b6001600160a01b03918216600090815260016020908152604080832093909416825291909152205490565b6000611045816111f2565b50600b80546001600160a01b0319166001600160a01b0392909216919091179055565b6001600160a01b031660009081526006602052604090205460ff1690565b60075460ff16156110cc5760405162461bcd60e51b815260206004820152601060248201526f14185d5cd8589b194e881c185d5cd95960821b6044820152606401610740565b565b6001600160a01b0383166111305760405162461bcd60e51b8152602060048201526024808201527f45524332303a20617070726f76652066726f6d20746865207a65726f206164646044820152637265737360e01b6064820152608401610740565b6001600160a01b0382166111915760405162461bcd60e51b815260206004820152602260248201527f45524332303a20617070726f766520746f20746865207a65726f206164647265604482015261737360f01b6064820152608401610740565b6001600160a01b0383811660008181526001602090815260408083209487168084529482529182902085905590518481527f8c5be1e5ebec7d5bd14f71427d1e84f3dd0314c0f7b2291e5b200ac8c7c3b925910160405180910390a3505050565b610b0d81336117b8565b6001600160a01b0383166112605760405162461bcd60e51b815260206004820152602560248201527f45524332303a207472616e736665722066726f6d20746865207a65726f206164604482015264647265737360d81b6064820152608401610740565b6001600160a01b0382166112c25760405162461bcd60e51b815260206004820152602360248201527f45524332303a207472616e7366657220746f20746865207a65726f206164647260448201526265737360e81b6064820152608401610740565b6112cd838383611811565b6001600160a01b038316600090815260208190526040902054818110156113455760405162461bcd60e51b815260206004820152602660248201527f45524332303a207472616e7366657220616d6f756e7420657863656564732062604482015265616c616e636560d01b6064820152608401610740565b6001600160a01b03848116600081815260208181526040808320878703905593871680835291849020805487019055925185815290927fddf252ad1be2c89b69c2b068fc378daa952ba7f163c4a11628f55a4df523b3ef910160405180910390a3610b71565b6001600160a01b03821661140b5760405162461bcd60e51b815260206004820152602160248201527f45524332303a206275726e2066726f6d20746865207a65726f206164647265736044820152607360f81b6064820152608401610740565b61141782600083611811565b6001600160a01b0382166000908152602081905260409020548181101561148b5760405162461bcd60e51b815260206004820152602260248201527f45524332303a206275726e20616d6f756e7420657863656564732062616c616e604482015261636560f01b6064820152608401610740565b6001600160a01b0383166000818152602081815260408083208686039055600280548790039055518581529192917fddf252ad1be2c89b69c2b068fc378daa952ba7f163c4a11628f55a4df523b3ef910160405180910390a3505050565b6000818484111561150d5760405162461bcd60e51b81526004016107409190611b91565b505050900390565b61151f8282610dc0565b6109cd5760008281526005602090815260408083206001600160a01b03851684529091529020805460ff191660011790556115573390565b6001600160a01b0316816001600160a01b0316837f2f8788117e7eff1d82e926ec794901d17c78024a50270940304540a733656f0d60405160405180910390a45050565b6115a58282610dc0565b156109cd5760008281526005602090815260408083206001600160a01b0385168085529252808320805460ff1916905551339285917ff6391f5c32d9c69d2a47ea670b442974b53935d1edc7fd64eb21e047a839171b9190a45050565b600061160e8284611d20565b9392505050565b60075460ff166110cc5760405162461bcd60e51b815260206004820152601460248201527314185d5cd8589b194e881b9bdd081c185d5cd95960621b6044820152606401610740565b611666611615565b6007805460ff191690557f5db9ee0a495bf2e6ff9c91a7834c1ba4fdd244a5e8aa4e537bd38aeae4b073aa335b6040516001600160a01b03909116815260200160405180910390a1565b6001600160a01b0382166117065760405162461bcd60e51b815260206004820152601f60248201527f45524332303a206d696e7420746f20746865207a65726f2061646472657373006044820152606401610740565b61171260008383611811565b80600260008282546117249190611d20565b90915550506001600160a01b038216600081815260208181526040808320805486019055518481527fddf252ad1be2c89b69c2b068fc378daa952ba7f163c4a11628f55a4df523b3ef910160405180910390a35050565b611783611086565b6007805460ff191660011790557f62e78cea01bee320cd4e420270b5ea74000d11b0c9f74754ebdbfc544b05a2586116933390565b6117c28282610dc0565b6109cd576117cf81611995565b6117da8360206119a7565b6040516020016117eb929190611d46565b60408051601f198184030181529082905262461bcd60e51b825261074091600401611b91565b611819611086565b82816001600160a01b038216156118c5578061184a836001600160a01b031660009081526008602052604090205490565b6001600160a01b03841660009081526020819052604090205461186d9190611d33565b10156118c55760405162461bcd60e51b815260206004820152602160248201527f5265616c4469676974616c3a20696e73756666696369656e742062616c616e636044820152606560f81b6064820152608401610740565b84846001600160a01b03821615611928576118df82611068565b6119235760405162461bcd60e51b815260206004820152601560248201527414d95b99195c881a5cc81b9bdd08195b98589b1959605a1b6044820152606401610740565b61198c565b6001600160a01b0381161561198c5761194081611068565b61198c5760405162461bcd60e51b815260206004820152601860248201527f526563697069656e74206973206e6f7420656e61626c656400000000000000006044820152606401610740565b50505050505050565b606061064d6001600160a01b03831660145b606060006119b6836002611dbb565b6119c1906002611d20565b67ffffffffffffffff8111156119d9576119d9611dd2565b6040519080825280601f01601f191660200182016040528015611a03576020820181803683370190505b509050600360fc1b81600081518110611a1e57611a1e611de8565b60200101906001600160f81b031916908160001a905350600f60fb1b81600181518110611a4d57611a4d611de8565b60200101906001600160f81b031916908160001a9053506000611a71846002611dbb565b611a7c906001611d20565b90505b6001811115611af4576f181899199a1a9b1b9c1cb0b131b232b360811b85600f1660108110611ab057611ab0611de8565b1a60f81b828281518110611ac657611ac6611de8565b60200101906001600160f81b031916908160001a90535060049490941c93611aed81611dfe565b9050611a7f565b50831561160e5760405162461bcd60e51b815260206004820181905260248201527f537472696e67733a20686578206c656e67746820696e73756666696369656e746044820152606401610740565b600060208284031215611b5557600080fd5b81356001600160e01b03198116811461160e57600080fd5b60005b83811015611b88578181015183820152602001611b70565b50506000910152565b6020815260008251806020840152611bb0816040850160208701611b6d565b601f01601f19169190910160400192915050565b80356001600160a01b0381168114611bdb57600080fd5b919050565b60008060408385031215611bf357600080fd5b611bfc83611bc4565b946020939093013593505050565b600080600060608486031215611c1f57600080fd5b611c2884611bc4565b9250611c3660208501611bc4565b9150604084013590509250925092565b600060208284031215611c5857600080fd5b5035919050565b60008060408385031215611c7257600080fd5b82359150611c8260208401611bc4565b90509250929050565b600060208284031215611c9d57600080fd5b61160e82611bc4565b60008060408385031215611cb957600080fd5b611cc283611bc4565b9150611c8260208401611bc4565b600181811c90821680611ce457607f821691505b602082108103611d0457634e487b7160e01b600052602260045260246000fd5b50919050565b634e487b7160e01b600052601160045260246000fd5b8082018082111561064d5761064d611d0a565b8181038181111561064d5761064d611d0a565b7f416363657373436f6e74726f6c3a206163636f756e7420000000000000000000815260008351611d7e816017850160208801611b6d565b7001034b99036b4b9b9b4b733903937b6329607d1b6017918401918201528351611daf816028840160208801611b6d565b01602801949350505050565b808202811582820484141761064d5761064d611d0a565b634e487b7160e01b600052604160045260246000fd5b634e487b7160e01b600052603260045260246000fd5b600081611e0d57611e0d611d0a565b50600019019056fe45524332303a207472616e7366657220616d6f756e74206578636565647320616c6c6f77616e636545524332303a2064656372656173656420616c6c6f77616e63652062656c6f77207a65726fa264697066735822122036c8d3a6ea383ec2fb23803f56c299c195633813e1724e87027c3b998ab5478b64736f6c63430008130033",
  "linkReferences": {},
  "deployedLinkReferences": {}
}