{
  "_format": "hh-sol-artifact-1",
  "contractName": "SwapOneStep",
  "sourceName": "src/contracts/SwapOneStep.sol",
  "abi": [
    {
      "inputs": [
        {
          "internalType": "contract RealDigital",
          "name": "_CBDC",
          "type": "address"
        }
      ],
      "stateMutability": "nonpayable",
      "type": "constructor"
    },
    {
      "anonymous": false,
      "inputs": [
        {
          "indexed": false,
          "internalType": "uint256",
          "name": "senderNumber",
          "type": "uint256"
        },
        {
          "indexed": false,
          "internalType": "uint256",
          "name": "receiverNumber",
          "type": "uint256"
        },
        {
          "indexed": false,
          "internalType": "address",
          "name": "sender",
          "type": "address"
        },
        {
          "indexed": false,
          "internalType": "address",
          "name": "receiver",
          "type": "address"
        },
        {
          "indexed": false,
          "internalType": "uint256",
          "name": "amount",
          "type": "uint256"
        }
      ],
      "name": "SwapExecuted",
      "type": "event"
    },
    {
      "inputs": [
        {
          "internalType": "contract RealTokenizado",
          "name": "tokenSender",
          "type": "address"
        },
        {
          "internalType": "contract RealTokenizado",
          "name": "tokenReceiver",
          "type": "address"
        },
        {
          "internalType": "address",
          "name": "receiver",
          "type": "address"
        },
        {
          "internalType": "uint256",
          "name": "amount",
          "type": "uint256"
        }
      ],
      "name": "executeSwap",
      "outputs": [],
      "stateMutability": "nonpayable",
      "type": "function"
    }
  ],
  "bytecode": "0x608060405234801561001057600080fd5b506040516104e33803806104e383398101604081905261002f91610054565b600080546001600160a01b0319166001600160a01b0392909216919091179055610084565b60006020828403121561006657600080fd5b81516001600160a01b038116811461007d57600080fd5b9392505050565b610450806100936000396000f3fe608060405234801561001057600080fd5b506004361061002b5760003560e01c80636012856e14610030575b600080fd5b61004361003e36600461038c565b610045565b005b60405163079cc67960e41b8152336004820152602481018290526001600160a01b038516906379cc679090604401600060405180830381600087803b15801561008d57600080fd5b505af11580156100a1573d6000803e3d6000fd5b5050505060008054906101000a90046001600160a01b03166001600160a01b031663bb35783b856001600160a01b031663cd3293de6040518163ffffffff1660e01b8152600401602060405180830381865afa158015610105573d6000803e3d6000fd5b505050506040513d601f19601f8201168201806040525081019061012991906103dd565b856001600160a01b031663cd3293de6040518163ffffffff1660e01b8152600401602060405180830381865afa158015610167573d6000803e3d6000fd5b505050506040513d601f19601f8201168201806040525081019061018b91906103dd565b6040516001600160e01b031960e085901b1681526001600160a01b0392831660048201529116602482015260448101849052606401600060405180830381600087803b1580156101da57600080fd5b505af11580156101ee573d6000803e3d6000fd5b50506040516340c10f1960e01b81526001600160a01b03858116600483015260248201859052861692506340c10f199150604401600060405180830381600087803b15801561023c57600080fd5b505af1158015610250573d6000803e3d6000fd5b505050507f3155b4536e4ae4b109dd4a9a4a81692cd1a0870195da68d6e2a94c5eb1fbf37e846001600160a01b031663ffa8e9ab6040518163ffffffff1660e01b8152600401602060405180830381865afa1580156102b3573d6000803e3d6000fd5b505050506040513d601f19601f820116820180604052508101906102d79190610401565b846001600160a01b031663ffa8e9ab6040518163ffffffff1660e01b8152600401602060405180830381865afa158015610315573d6000803e3d6000fd5b505050506040513d601f19601f820116820180604052508101906103399190610401565b60408051928352602083019190915233908201526001600160a01b03841660608201526080810183905260a00160405180910390a150505050565b6001600160a01b038116811461038957600080fd5b50565b600080600080608085870312156103a257600080fd5b84356103ad81610374565b935060208501356103bd81610374565b925060408501356103cd81610374565b9396929550929360600135925050565b6000602082840312156103ef57600080fd5b81516103fa81610374565b9392505050565b60006020828403121561041357600080fd5b505191905056fea26469706673582212207847eea686b77c4bba4f39562734d00516ef643b8b3359cbb636ea8a766b020f64736f6c63430008130033",
  "linkReferences": {},
  "deployedLinkReferences": {}
}