{
  "_format": "hh-sol-artifact-1",
  "contractName": "StudentAssistanceVault",
  "sourceName": "contracts/StudentAssistanceVault.sol",
  "abi": [
    {
      "inputs": [
        {
          "internalType": "address",
          "name": "_drexToken",
          "type": "address"
        },
        {
          "internalType": "address",
          "name": "_administrator",
          "type": "address"
        }
      ],
      "stateMutability": "nonpayable",
      "type": "constructor"
    },
    {
      "inputs": [],
      "name": "AccessControlBadConfirmation",
      "type": "error"
    },
    {
      "inputs": [
        {
          "internalType": "address",
          "name": "account",
          "type": "address"
        },
        {
          "internalType": "bytes32",
          "name": "neededRole",
          "type": "bytes32"
        }
      ],
      "name": "AccessControlUnauthorizedAccount",
      "type": "error"
    },
    {
      "inputs": [],
      "name": "ReentrancyGuardReentrantCall",
      "type": "error"
    },
    {
      "inputs": [
        {
          "internalType": "address",
          "name": "token",
          "type": "address"
        }
      ],
      "name": "SafeERC20FailedOperation",
      "type": "error"
    },
    {
      "anonymous": false,
      "inputs": [
        {
          "indexed": false,
          "internalType": "uint256",
          "name": "startIndex",
          "type": "uint256"
        },
        {
          "indexed": false,
          "internalType": "uint256",
          "name": "endIndex",
          "type": "uint256"
        },
        {
          "indexed": false,
          "internalType": "uint256",
          "name": "amount",
          "type": "uint256"
        },
        {
          "indexed": false,
          "internalType": "uint256",
          "name": "timestamp",
          "type": "uint256"
        }
      ],
      "name": "BatchDistribution",
      "type": "event"
    },
    {
      "anonymous": false,
      "inputs": [
        {
          "indexed": true,
          "internalType": "address",
          "name": "from",
          "type": "address"
        },
        {
          "indexed": false,
          "internalType": "uint256",
          "name": "amount",
          "type": "uint256"
        },
        {
          "indexed": false,
          "internalType": "uint256",
          "name": "timestamp",
          "type": "uint256"
        }
      ],
      "name": "DrexDeposited",
      "type": "event"
    },
    {
      "anonymous": false,
      "inputs": [
        {
          "indexed": true,
          "internalType": "address",
          "name": "admin",
          "type": "address"
        },
        {
          "indexed": false,
          "internalType": "uint256",
          "name": "amount",
          "type": "uint256"
        },
        {
          "indexed": false,
          "internalType": "uint256",
          "name": "timestamp",
          "type": "uint256"
        }
      ],
      "name": "EmergencyWithdraw",
      "type": "event"
    },
    {
      "anonymous": false,
      "inputs": [
        {
          "indexed": false,
          "internalType": "uint256",
          "name": "totalAmount",
          "type": "uint256"
        },
        {
          "indexed": false,
          "internalType": "uint256",
          "name": "studentsCount",
          "type": "uint256"
        },
        {
          "indexed": false,
          "internalType": "uint256",
          "name": "timestamp",
          "type": "uint256"
        }
      ],
      "name": "MonthlyDistribution",
      "type": "event"
    },
    {
      "anonymous": false,
      "inputs": [
        {
          "indexed": true,
          "internalType": "bytes32",
          "name": "role",
          "type": "bytes32"
        },
        {
          "indexed": true,
          "internalType": "bytes32",
          "name": "previousAdminRole",
          "type": "bytes32"
        },
        {
          "indexed": true,
          "internalType": "bytes32",
          "name": "newAdminRole",
          "type": "bytes32"
        }
      ],
      "name": "RoleAdminChanged",
      "type": "event"
    },
    {
      "anonymous": false,
      "inputs": [
        {
          "indexed": true,
          "internalType": "bytes32",
          "name": "role",
          "type": "bytes32"
        },
        {
          "indexed": true,
          "internalType": "address",
          "name": "account",
          "type": "address"
        },
        {
          "indexed": true,
          "internalType": "address",
          "name": "sender",
          "type": "address"
        }
      ],
      "name": "RoleGranted",
      "type": "event"
    },
    {
      "anonymous": false,
      "inputs": [
        {
          "indexed": true,
          "internalType": "bytes32",
          "name": "role",
          "type": "bytes32"
        },
        {
          "indexed": true,
          "internalType": "address",
          "name": "account",
          "type": "address"
        },
        {
          "indexed": true,
          "internalType": "address",
          "name": "sender",
          "type": "address"
        }
      ],
      "name": "RoleRevoked",
      "type": "event"
    },
    {
      "anonymous": false,
      "inputs": [
        {
          "indexed": true,
          "internalType": "address",
          "name": "account",
          "type": "address"
        },
        {
          "indexed": true,
          "internalType": "address",
          "name": "admin",
          "type": "address"
        },
        {
          "indexed": false,
          "internalType": "uint256",
          "name": "timestamp",
          "type": "uint256"
        }
      ],
      "name": "StaffRoleGranted",
      "type": "event"
    },
    {
      "anonymous": false,
      "inputs": [
        {
          "indexed": true,
          "internalType": "address",
          "name": "account",
          "type": "address"
        },
        {
          "indexed": true,
          "internalType": "address",
          "name": "admin",
          "type": "address"
        },
        {
          "indexed": false,
          "internalType": "uint256",
          "name": "timestamp",
          "type": "uint256"
        }
      ],
      "name": "StaffRoleRevoked",
      "type": "event"
    },
    {
      "anonymous": false,
      "inputs": [
        {
          "indexed": true,
          "internalType": "address",
          "name": "student",
          "type": "address"
        },
        {
          "indexed": false,
          "internalType": "uint256",
          "name": "monthlyAmount",
          "type": "uint256"
        },
        {
          "indexed": false,
          "internalType": "uint256",
          "name": "timestamp",
          "type": "uint256"
        }
      ],
      "name": "StudentRegistered",
      "type": "event"
    },
    {
      "anonymous": false,
      "inputs": [
        {
          "indexed": true,
          "internalType": "address",
          "name": "student",
          "type": "address"
        },
        {
          "indexed": false,
          "internalType": "uint256",
          "name": "timestamp",
          "type": "uint256"
        }
      ],
      "name": "StudentRemoved",
      "type": "event"
    },
    {
      "anonymous": false,
      "inputs": [
        {
          "indexed": true,
          "internalType": "address",
          "name": "student",
          "type": "address"
        },
        {
          "indexed": false,
          "internalType": "uint256",
          "name": "oldAmount",
          "type": "uint256"
        },
        {
          "indexed": false,
          "internalType": "uint256",
          "name": "newAmount",
          "type": "uint256"
        },
        {
          "indexed": false,
          "internalType": "uint256",
          "name": "timestamp",
          "type": "uint256"
        }
      ],
      "name": "StudentUpdated",
      "type": "event"
    },
    {
      "anonymous": false,
      "inputs": [
        {
          "indexed": true,
          "internalType": "address",
          "name": "from",
          "type": "address"
        },
        {
          "indexed": true,
          "internalType": "address",
          "name": "to",
          "type": "address"
        },
        {
          "indexed": false,
          "internalType": "uint256",
          "name": "amount",
          "type": "uint256"
        },
        {
          "indexed": false,
          "internalType": "uint256",
          "name": "timestamp",
          "type": "uint256"
        }
      ],
      "name": "Transfer",
      "type": "event"
    },
    {
      "inputs": [],
      "name": "ADMIN_ROLE",
      "outputs": [
        {
          "internalType": "bytes32",
          "name": "",
          "type": "bytes32"
        }
      ],
      "stateMutability": "view",
      "type": "function"
    },
    {
      "inputs": [],
      "name": "DEFAULT_ADMIN_ROLE",
      "outputs": [
        {
          "internalType": "bytes32",
          "name": "",
          "type": "bytes32"
        }
      ],
      "stateMutability": "view",
      "type": "function"
    },
    {
      "inputs": [],
      "name": "MAX_BATCH_SIZE",
      "outputs": [
        {
          "internalType": "uint256",
          "name": "",
          "type": "uint256"
        }
      ],
      "stateMutability": "view",
      "type": "function"
    },
    {
      "inputs": [],
      "name": "MAX_STUDENTS",
      "outputs": [
        {
          "internalType": "uint256",
          "name": "",
          "type": "uint256"
        }
      ],
      "stateMutability": "view",
      "type": "function"
    },
    {
      "inputs": [],
      "name": "STAFF_ROLE",
      "outputs": [
        {
          "internalType": "bytes32",
          "name": "",
          "type": "bytes32"
        }
      ],
      "stateMutability": "view",
      "type": "function"
    },
    {
      "inputs": [
        {
          "internalType": "address",
          "name": "",
          "type": "address"
        }
      ],
      "name": "balances",
      "outputs": [
        {
          "internalType": "uint256",
          "name": "",
          "type": "uint256"
        }
      ],
      "stateMutability": "view",
      "type": "function"
    },
    {
      "inputs": [
        {
          "internalType": "uint256",
          "name": "amount",
          "type": "uint256"
        }
      ],
      "name": "depositDrex",
      "outputs": [],
      "stateMutability": "nonpayable",
      "type": "function"
    },
    {
      "inputs": [
        {
          "internalType": "uint256",
          "name": "startIndex",
          "type": "uint256"
        },
        {
          "internalType": "uint256",
          "name": "endIndex",
          "type": "uint256"
        }
      ],
      "name": "distributeBatch",
      "outputs": [],
      "stateMutability": "nonpayable",
      "type": "function"
    },
    {
      "inputs": [],
      "name": "distributeMonthlyAllowances",
      "outputs": [],
      "stateMutability": "nonpayable",
      "type": "function"
    },
    {
      "inputs": [],
      "name": "drexToken",
      "outputs": [
        {
          "internalType": "contract IERC20",
          "name": "",
          "type": "address"
        }
      ],
      "stateMutability": "view",
      "type": "function"
    },
    {
      "inputs": [
        {
          "internalType": "uint256",
          "name": "amount",
          "type": "uint256"
        }
      ],
      "name": "emergencyWithdraw",
      "outputs": [],
      "stateMutability": "nonpayable",
      "type": "function"
    },
    {
      "inputs": [],
      "name": "getAllStudents",
      "outputs": [
        {
          "internalType": "address[]",
          "name": "",
          "type": "address[]"
        }
      ],
      "stateMutability": "view",
      "type": "function"
    },
    {
      "inputs": [],
      "name": "getBatchInfo",
      "outputs": [
        {
          "internalType": "uint256",
          "name": "totalStudents",
          "type": "uint256"
        },
        {
          "internalType": "uint256",
          "name": "maxBatchSize",
          "type": "uint256"
        },
        {
          "internalType": "uint256",
          "name": "estimatedBatches",
          "type": "uint256"
        }
      ],
      "stateMutability": "view",
      "type": "function"
    },
    {
      "inputs": [],
      "name": "getContractBalance",
      "outputs": [
        {
          "internalType": "uint256",
          "name": "",
          "type": "uint256"
        }
      ],
      "stateMutability": "view",
      "type": "function"
    },
    {
      "inputs": [
        {
          "internalType": "bytes32",
          "name": "role",
          "type": "bytes32"
        }
      ],
      "name": "getRoleAdmin",
      "outputs": [
        {
          "internalType": "bytes32",
          "name": "",
          "type": "bytes32"
        }
      ],
      "stateMutability": "view",
      "type": "function"
    },
    {
      "inputs": [
        {
          "internalType": "uint256",
          "name": "index",
          "type": "uint256"
        }
      ],
      "name": "getStudentAtIndex",
      "outputs": [
        {
          "internalType": "address",
          "name": "",
          "type": "address"
        }
      ],
      "stateMutability": "view",
      "type": "function"
    },
    {
      "inputs": [
        {
          "internalType": "address",
          "name": "student",
          "type": "address"
        }
      ],
      "name": "getStudentBalance",
      "outputs": [
        {
          "internalType": "uint256",
          "name": "",
          "type": "uint256"
        }
      ],
      "stateMutability": "view",
      "type": "function"
    },
    {
      "inputs": [],
      "name": "getStudentCount",
      "outputs": [
        {
          "internalType": "uint256",
          "name": "",
          "type": "uint256"
        }
      ],
      "stateMutability": "view",
      "type": "function"
    },
    {
      "inputs": [
        {
          "internalType": "address",
          "name": "student",
          "type": "address"
        }
      ],
      "name": "getStudentInfo",
      "outputs": [
        {
          "components": [
            {
              "internalType": "address",
              "name": "studentAddress",
              "type": "address"
            },
            {
              "internalType": "uint256",
              "name": "monthlyAmount",
              "type": "uint256"
            },
            {
              "internalType": "bool",
              "name": "isActive",
              "type": "bool"
            },
            {
              "internalType": "uint256",
              "name": "registeredAt",
              "type": "uint256"
            }
          ],
          "internalType": "struct StudentAssistanceVault.Student",
          "name": "",
          "type": "tuple"
        }
      ],
      "stateMutability": "view",
      "type": "function"
    },
    {
      "inputs": [],
      "name": "getTotalDistributedAmount",
      "outputs": [
        {
          "internalType": "uint256",
          "name": "",
          "type": "uint256"
        }
      ],
      "stateMutability": "view",
      "type": "function"
    },
    {
      "inputs": [],
      "name": "getTotalExpectedAmount",
      "outputs": [
        {
          "internalType": "uint256",
          "name": "",
          "type": "uint256"
        }
      ],
      "stateMutability": "view",
      "type": "function"
    },
    {
      "inputs": [
        {
          "internalType": "bytes32",
          "name": "role",
          "type": "bytes32"
        },
        {
          "internalType": "address",
          "name": "account",
          "type": "address"
        }
      ],
      "name": "grantRole",
      "outputs": [],
      "stateMutability": "nonpayable",
      "type": "function"
    },
    {
      "inputs": [
        {
          "internalType": "address",
          "name": "account",
          "type": "address"
        }
      ],
      "name": "grantStaffRole",
      "outputs": [],
      "stateMutability": "nonpayable",
      "type": "function"
    },
    {
      "inputs": [
        {
          "internalType": "bytes32",
          "name": "role",
          "type": "bytes32"
        },
        {
          "internalType": "address",
          "name": "account",
          "type": "address"
        }
      ],
      "name": "hasRole",
      "outputs": [
        {
          "internalType": "bool",
          "name": "",
          "type": "bool"
        }
      ],
      "stateMutability": "view",
      "type": "function"
    },
    {
      "inputs": [
        {
          "internalType": "address",
          "name": "account",
          "type": "address"
        }
      ],
      "name": "isStudent",
      "outputs": [
        {
          "internalType": "bool",
          "name": "",
          "type": "bool"
        }
      ],
      "stateMutability": "view",
      "type": "function"
    },
    {
      "inputs": [],
      "name": "lastDistributionTimestamp",
      "outputs": [
        {
          "internalType": "uint256",
          "name": "",
          "type": "uint256"
        }
      ],
      "stateMutability": "view",
      "type": "function"
    },
    {
      "inputs": [
        {
          "internalType": "address",
          "name": "studentAddress",
          "type": "address"
        },
        {
          "internalType": "uint256",
          "name": "monthlyAmount",
          "type": "uint256"
        }
      ],
      "name": "registerStudent",
      "outputs": [],
      "stateMutability": "nonpayable",
      "type": "function"
    },
    {
      "inputs": [
        {
          "internalType": "address",
          "name": "studentAddress",
          "type": "address"
        }
      ],
      "name": "removeStudent",
      "outputs": [],
      "stateMutability": "nonpayable",
      "type": "function"
    },
    {
      "inputs": [
        {
          "internalType": "bytes32",
          "name": "role",
          "type": "bytes32"
        },
        {
          "internalType": "address",
          "name": "callerConfirmation",
          "type": "address"
        }
      ],
      "name": "renounceRole",
      "outputs": [],
      "stateMutability": "nonpayable",
      "type": "function"
    },
    {
      "inputs": [
        {
          "internalType": "bytes32",
          "name": "role",
          "type": "bytes32"
        },
        {
          "internalType": "address",
          "name": "account",
          "type": "address"
        }
      ],
      "name": "revokeRole",
      "outputs": [],
      "stateMutability": "nonpayable",
      "type": "function"
    },
    {
      "inputs": [
        {
          "internalType": "address",
          "name": "account",
          "type": "address"
        }
      ],
      "name": "revokeStaffRole",
      "outputs": [],
      "stateMutability": "nonpayable",
      "type": "function"
    },
    {
      "inputs": [
        {
          "internalType": "uint256",
          "name": "",
          "type": "uint256"
        }
      ],
      "name": "studentAddresses",
      "outputs": [
        {
          "internalType": "address",
          "name": "",
          "type": "address"
        }
      ],
      "stateMutability": "view",
      "type": "function"
    },
    {
      "inputs": [
        {
          "internalType": "address",
          "name": "",
          "type": "address"
        }
      ],
      "name": "students",
      "outputs": [
        {
          "internalType": "address",
          "name": "studentAddress",
          "type": "address"
        },
        {
          "internalType": "uint256",
          "name": "monthlyAmount",
          "type": "uint256"
        },
        {
          "internalType": "bool",
          "name": "isActive",
          "type": "bool"
        },
        {
          "internalType": "uint256",
          "name": "registeredAt",
          "type": "uint256"
        }
      ],
      "stateMutability": "view",
      "type": "function"
    },
    {
      "inputs": [
        {
          "internalType": "bytes4",
          "name": "interfaceId",
          "type": "bytes4"
        }
      ],
      "name": "supportsInterface",
      "outputs": [
        {
          "internalType": "bool",
          "name": "",
          "type": "bool"
        }
      ],
      "stateMutability": "view",
      "type": "function"
    },
    {
      "inputs": [],
      "name": "totalDistributedAmount",
      "outputs": [
        {
          "internalType": "uint256",
          "name": "",
          "type": "uint256"
        }
      ],
      "stateMutability": "view",
      "type": "function"
    },
    {
      "inputs": [],
      "name": "totalExpectedAmount",
      "outputs": [
        {
          "internalType": "uint256",
          "name": "",
          "type": "uint256"
        }
      ],
      "stateMutability": "view",
      "type": "function"
    },
    {
      "inputs": [
        {
          "internalType": "address",
          "name": "to",
          "type": "address"
        },
        {
          "internalType": "uint256",
          "name": "amount",
          "type": "uint256"
        }
      ],
      "name": "transfer",
      "outputs": [],
      "stateMutability": "nonpayable",
      "type": "function"
    },
    {
      "inputs": [
        {
          "internalType": "address",
          "name": "studentAddress",
          "type": "address"
        },
        {
          "internalType": "uint256",
          "name": "newAmount",
          "type": "uint256"
        }
      ],
      "name": "updateStudentAmount",
      "outputs": [],
      "stateMutability": "nonpayable",
      "type": "function"
    },
    {
      "inputs": [],
      "name": "withdrawAll",
      "outputs": [],
      "stateMutability": "nonpayable",
      "type": "function"
    },
    {
      "stateMutability": "payable",
      "type": "receive"
    }
  ],
  "bytecode": "0x60a06040523480156200001157600080fd5b50604051620027813803806200278183398101604081905262000034916200020f565b60018055816001600160a01b038116620000945760405162461bcd60e51b81526020600482015260276024820152600080516020620027618339815191526044820152666164647265737360c81b60648201526084015b60405180910390fd5b816001600160a01b038116620000ec5760405162461bcd60e51b81526020600482015260276024820152600080516020620027618339815191526044820152666164647265737360c81b60648201526084016200008b565b6001600160a01b0384166080526200010660008462000143565b50620001337fa49807205ce4d355092ef5a8a18f56e8913cf4a201fbe287825b095693c217758462000143565b5050426007555062000247915050565b6000828152602081815260408083206001600160a01b038516845290915281205460ff16620001e8576000838152602081815260408083206001600160a01b03861684529091529020805460ff191660011790556200019f3390565b6001600160a01b0316826001600160a01b0316847f2f8788117e7eff1d82e926ec794901d17c78024a50270940304540a733656f0d60405160405180910390a4506001620001ec565b5060005b92915050565b80516001600160a01b03811681146200020a57600080fd5b919050565b600080604083850312156200022357600080fd5b6200022e83620001f2565b91506200023e60208401620001f2565b90509250929050565b6080516124bf620002a2600039600081816107e901528181610cee01528181610d8c01528181610eab01528181610f59015281816112730152818161135c015281816114c0015281816117d50152611a8c01526124bf6000f3fe6080604052600436106102345760003560e01c806375b238fc1161012e578063a6c807a9116100ab578063ce89c9801161006f578063ce89c9801461082b578063cfdbf2541461084b578063d547741f14610860578063e9e3092714610880578063f39df99b146108a257600080fd5b8063a6c807a914610716578063a9059cbb14610797578063b5ab682d146107b7578063b756e07b146107d7578063c346b63c1461080b57600080fd5b80638b5403cc116100f25780638b5403cc146106865780638e877b9f1461069c57806391d14854146106cc57806394001fcb146106ec578063a217fddf1461070157600080fd5b806375b238fc146105ed57806378c4798c1461060f57806382f7d3921461062f57806385290fa11461064f578063853828b61461067157600080fd5b80632f2ff15d116101bc5780635312ea8e116101805780635312ea8e1461056357806355012e171461058357806367087ee3146105a35780636f9fb98a146105b85780637370f9af146105cd57600080fd5b80632f2ff15d1461040b57806336568abe1461042b5780633cf73d4d1461044b57806341e0c407146104835780634b82caec1461049857600080fd5b80631f0beb93116102035780631f0beb9314610360578063209509331461038257806322af68b414610398578063248a9ca3146103ae57806327e235e3146103de57600080fd5b806301ffc9a7146102bc57806308b9ddd8146102f15780630a7eeac71461033557806315b5a0291461034a57600080fd5b366102b75760405162461bcd60e51b815260206004820152604260248201527f53747564656e74417373697374616e63655661756c743a20757365206465706f60448201527f736974447265782066756e6374696f6e20666f722044524558206465706f7369606482015261747360f01b608482015260a4015b60405180910390fd5b600080fd5b3480156102c857600080fd5b506102dc6102d73660046120bc565b6108c2565b60405190151581526020015b60405180910390f35b3480156102fd57600080fd5b5061032761030c366004612109565b6001600160a01b031660009081526003602052604090205490565b6040519081526020016102e8565b34801561034157600080fd5b50600554610327565b34801561035657600080fd5b5061032760065481565b34801561036c57600080fd5b5061038061037b366004612124565b6108f9565b005b34801561038e57600080fd5b5061032760075481565b3480156103a457600080fd5b506103276103e881565b3480156103ba57600080fd5b506103276103c936600461214e565b60009081526020819052604090206001015490565b3480156103ea57600080fd5b506103276103f9366004612109565b60036020526000908152604090205481565b34801561041757600080fd5b50610380610426366004612167565b610b9d565b34801561043757600080fd5b50610380610446366004612167565b610bc8565b34801561045757600080fd5b5061046b61046636600461214e565b610c00565b6040516001600160a01b0390911681526020016102e8565b34801561048f57600080fd5b50600454610327565b3480156104a457600080fd5b506105256104b3366004612109565b60408051608080820183526000808352602080840182905283850182905260609384018290526001600160a01b039586168252600280825291859020855193840186528054909616835260018601549083015284015460ff161515928101929092526003909201549181019190915290565b6040516102e8919081516001600160a01b03168152602080830151908201526040808301511515908201526060918201519181019190915260800190565b34801561056f57600080fd5b5061038061057e36600461214e565b610c96565b34801561058f57600080fd5b5061038061059e366004612109565b610df6565b3480156105af57600080fd5b50600654610327565b3480156105c457600080fd5b50610327610e93565b3480156105d957600080fd5b506103806105e836600461214e565b610f23565b3480156105f957600080fd5b5061032760008051602061246a83398151915281565b34801561061b57600080fd5b5061038061062a366004612109565b610fc8565b34801561063b57600080fd5b506102dc61064a366004612109565b611219565b34801561065b57600080fd5b5061032760008051602061244a83398151915281565b34801561067d57600080fd5b5061038061123b565b34801561069257600080fd5b5061032760055481565b3480156106a857600080fd5b506106b16113ca565b604080519384526020840192909252908201526060016102e8565b3480156106d857600080fd5b506102dc6106e7366004612167565b6113f9565b3480156106f857600080fd5b50610380611422565b34801561070d57600080fd5b50610327600081565b34801561072257600080fd5b50610767610731366004612109565b600260208190526000918252604090912080546001820154928201546003909201546001600160a01b03909116929160ff169084565b604080516001600160a01b03909516855260208501939093529015159183019190915260608201526080016102e8565b3480156107a357600080fd5b506103806107b2366004612124565b611664565b3480156107c357600080fd5b5061046b6107d236600461214e565b61184a565b3480156107e357600080fd5b5061046b7f000000000000000000000000000000000000000000000000000000000000000081565b34801561081757600080fd5b50610380610826366004612193565b611874565b34801561083757600080fd5b50610380610846366004612124565b611bdb565b34801561085757600080fd5b50610327603281565b34801561086c57600080fd5b5061038061087b366004612167565b611d2e565b34801561088c57600080fd5b50610895611d53565b6040516102e891906121b5565b3480156108ae57600080fd5b506103806108bd366004612109565b611db5565b60006001600160e01b03198216637965db0b60e01b14806108f357506301ffc9a760e01b6001600160e01b03198316145b92915050565b61091160008051602061246a833981519152336113f9565b8061092f575061092f60008051602061244a833981519152336113f9565b61094b5760405162461bcd60e51b81526004016102ae90612202565b816001600160a01b0381166109725760405162461bcd60e51b81526004016102ae9061225f565b81600081116109935760405162461bcd60e51b81526004016102ae906122a6565b61099c84611219565b15610a045760405162461bcd60e51b815260206004820152603260248201527f53747564656e74417373697374616e63655661756c743a2073747564656e7420604482015271185b1c9958591e481c9959da5cdd195c995960721b60648201526084016102ae565b6004546103e811610a705760405162461bcd60e51b815260206004820152603060248201527f53747564656e74417373697374616e63655661756c743a206d6178696d756d2060448201526f1cdd1d59195b9d1cc81c995858da195960821b60648201526084016102ae565b604080516080810182526001600160a01b0380871680835260208084018881526001858701818152426060880190815260008681526002958690529889209751885497166001600160a01b031997881617885592518783015551928601805493151560ff19909416939093179092555160039094019390935560048054938401815584527f8a35acfbc15ff81a39ae7d344fd709f28e8600b4aa8c65c6b64bfe7fe36bd19b9092018054909116909117905560058054859290610b34908490612319565b90915550506001600160a01b03841660008181526003602052604080822091909155517f86e4679a80d93e8b714b18593a33a7ea7270c83bf7eec34f87c06ab9c1df3dea90610b8f9086904290918252602082015260400190565b60405180910390a250505050565b600082815260208190526040902060010154610bb881611e49565b610bc28383611e53565b50505050565b6001600160a01b0381163314610bf15760405163334bd91960e11b815260040160405180910390fd5b610bfb8282611ee5565b505050565b6004546000908210610c685760405162461bcd60e51b815260206004820152602b60248201527f53747564656e74417373697374616e63655661756c743a20696e646578206f7560448201526a74206f6620626f756e647360a81b60648201526084016102ae565b60048281548110610c7b57610c7b61232c565b6000918252602090912001546001600160a01b031692915050565b60008051602061246a833981519152610cae81611e49565b8160008111610ccf5760405162461bcd60e51b81526004016102ae906122a6565b610cd7611f50565b6040516370a0823160e01b815230600482015283907f00000000000000000000000000000000000000000000000000000000000000006001600160a01b0316906370a0823190602401602060405180830381865afa158015610d3d573d6000803e3d6000fd5b505050506040513d601f19601f82011682018060405250810190610d619190612342565b1015610d7f5760405162461bcd60e51b81526004016102ae9061235b565b610db36001600160a01b037f0000000000000000000000000000000000000000000000000000000000000000163385611f7a565b6040805184815242602082015233917fbb757047c2b5f3974fe26b7c10f732e7bce710b0952a71082702781e62ae0595910160405180910390a2610bfb60018055565b60008051602061246a833981519152610e0e81611e49565b816001600160a01b038116610e355760405162461bcd60e51b81526004016102ae9061225f565b610e4d60008051602061244a83398151915284611d2e565b60405142815233906001600160a01b038516907fdf0e01173dbfc24c434961ec5dc87d3d8b6bcee8167d9ef2d309ee9b366d8814906020015b60405180910390a3505050565b6040516370a0823160e01b81523060048201526000907f00000000000000000000000000000000000000000000000000000000000000006001600160a01b0316906370a0823190602401602060405180830381865afa158015610efa573d6000803e3d6000fd5b505050506040513d601f19601f82011682018060405250810190610f1e9190612342565b905090565b8060008111610f445760405162461bcd60e51b81526004016102ae906122a6565b610f4c611f50565b610f816001600160a01b037f000000000000000000000000000000000000000000000000000000000000000016333085611fd9565b6040805183815242602082015233917ff66ff20c26605c930dad29c63cb138118323510862a5f3908d8a3a5547fc7f92910160405180910390a2610fc460018055565b5050565b610fe060008051602061246a833981519152336113f9565b80610ffe5750610ffe60008051602061244a833981519152336113f9565b61101a5760405162461bcd60e51b81526004016102ae90612202565b806001600160a01b0381166110415760405162461bcd60e51b81526004016102ae9061225f565b61104a82611219565b6110665760405162461bcd60e51b81526004016102ae906123b0565b6001600160a01b0382166000908152600260205260408120600181015460058054929391928392906110999084906123fe565b909155505060028201805460ff1916905560005b6004548110156111a857846001600160a01b0316600482815481106110d4576110d461232c565b6000918252602090912001546001600160a01b0316036111a057600480546110fe906001906123fe565b8154811061110e5761110e61232c565b600091825260209091200154600480546001600160a01b03909216918390811061113a5761113a61232c565b9060005260206000200160006101000a8154816001600160a01b0302191690836001600160a01b03160217905550600480548061117957611179612411565b600082815260209020810160001990810180546001600160a01b03191690550190556111a8565b6001016110ad565b506001600160a01b038416600081815260026020818152604080842080546001600160a01b031916815560018101859055928301805460ff19169055600390920192909255514281527f43d97c3fb0a78f055d2ce6584a3083a837b704a70e17d67375f6835dec763eba9101610b8f565b6001600160a01b03166000908152600260208190526040909120015460ff1690565b60008051602061246a83398151915261125381611e49565b61125b611f50565b6040516370a0823160e01b81523060048201526000907f00000000000000000000000000000000000000000000000000000000000000006001600160a01b0316906370a0823190602401602060405180830381865afa1580156112c2573d6000803e3d6000fd5b505050506040513d601f19601f820116820180604052508101906112e69190612342565b90506000811161134f5760405162461bcd60e51b815260206004820152602e60248201527f53747564656e74417373697374616e63655661756c743a206e6f2062616c616e60448201526d636520746f20776974686472617760901b60648201526084016102ae565b6113836001600160a01b037f0000000000000000000000000000000000000000000000000000000000000000163383611f7a565b6040805182815242602082015233917fbb757047c2b5f3974fe26b7c10f732e7bce710b0952a71082702781e62ae0595910160405180910390a2506113c760018055565b50565b600454603260008160016113de8286612319565b6113e891906123fe565b6113f29190612427565b9050909192565b6000918252602082815260408084206001600160a01b0393909316845291905290205460ff1690565b60008051602061246a83398151915261143a81611e49565b611442611f50565b6004546114a85760405162461bcd60e51b815260206004820152602e60248201527f53747564656e74417373697374616e63655661756c743a206e6f20737475646560448201526d1b9d1cc81c9959da5cdd195c995960921b60648201526084016102ae565b6005546040516370a0823160e01b81523060048201527f00000000000000000000000000000000000000000000000000000000000000006001600160a01b0316906370a0823190602401602060405180830381865afa15801561150f573d6000803e3d6000fd5b505050506040513d601f19601f820116820180604052508101906115339190612342565b10156115515760405162461bcd60e51b81526004016102ae9061235b565b6000805b6004548110156115f7576000600482815481106115745761157461232c565b60009182526020808320909101546001600160a01b03168083526002918290526040909220908101549192509060ff16156115ed5760018101546001600160a01b038316600090815260036020526040812080549091906115d6908490612319565b909155505060018101546115ea9085612319565b93505b5050600101611555565b50806006600082825461160a9190612319565b90915550504260078190556004546040805184815260208101929092528101919091527f50d37582a1d26ec0167587d2a1ab13be38444afc1fe1f9f5511bfe12a1e777969060600160405180910390a1506113c760018055565b61166d33611219565b6116df5760405162461bcd60e51b815260206004820152603a60248201527f53747564656e74417373697374616e63655661756c743a2063616c6c6572206960448201527f73206e6f74206120726567697374657265642073747564656e7400000000000060648201526084016102ae565b816001600160a01b0381166117065760405162461bcd60e51b81526004016102ae9061225f565b81600081116117275760405162461bcd60e51b81526004016102ae906122a6565b61172f611f50565b336000908152600360205260409020548311156117a35760405162461bcd60e51b815260206004820152602c60248201527f53747564656e74417373697374616e63655661756c743a20696e73756666696360448201526b69656e742062616c616e636560a01b60648201526084016102ae565b33600090815260036020526040812080548592906117c29084906123fe565b909155506117fc90506001600160a01b037f0000000000000000000000000000000000000000000000000000000000000000168585611f7a565b604080518481524260208201526001600160a01b0386169133917f9ed053bb818ff08b8353cd46f78db1f0799f31c9e4458fdb425c10eccd2efc44910160405180910390a3610bc260018055565b6004818154811061185a57600080fd5b6000918252602090912001546001600160a01b0316905081565b60008051602061246a83398151915261188c81611e49565b611894611f50565b8183106118f75760405162461bcd60e51b815260206004820152602b60248201527f53747564656e74417373697374616e63655661756c743a20696e76616c69642060448201526a62617463682072616e676560a81b60648201526084016102ae565b6004548211156119615760405162461bcd60e51b815260206004820152602f60248201527f53747564656e74417373697374616e63655661756c743a20656e6420696e646560448201526e78206f7574206f6620626f756e647360881b60648201526084016102ae565b603261196d84846123fe565b11156119d05760405162461bcd60e51b815260206004820152602c60248201527f53747564656e74417373697374616e63655661756c743a20626174636820736960448201526b7a6520746f6f206c6172676560a01b60648201526084016102ae565b6000835b83811015611a74576000600482815481106119f1576119f161232c565b60009182526020808320909101546001600160a01b03168083526002918290526040909220908101549192509060ff1615611a6a5760018101546001600160a01b03831660009081526003602052604081208054909190611a53908490612319565b90915550506001810154611a679085612319565b93505b50506001016119d4565b506040516370a0823160e01b815230600482015281907f00000000000000000000000000000000000000000000000000000000000000006001600160a01b0316906370a0823190602401602060405180830381865afa158015611adb573d6000803e3d6000fd5b505050506040513d601f19601f82011682018060405250810190611aff9190612342565b1015611b735760405162461bcd60e51b815260206004820152603f60248201527f53747564656e74417373697374616e63655661756c743a20696e73756666696360448201527f69656e7420636f6e74726163742062616c616e636520666f722062617463680060648201526084016102ae565b8060066000828254611b859190612319565b909155505060408051858152602081018590529081018290524260608201527fc8aec49e63da3203979cd2b948ef73530ce9514dd922dff0a85ace9fc299e0429060800160405180910390a150610bfb60018055565b611bf360008051602061246a833981519152336113f9565b80611c115750611c1160008051602061244a833981519152336113f9565b611c2d5760405162461bcd60e51b81526004016102ae90612202565b816001600160a01b038116611c545760405162461bcd60e51b81526004016102ae9061225f565b8160008111611c755760405162461bcd60e51b81526004016102ae906122a6565b611c7e84611219565b611c9a5760405162461bcd60e51b81526004016102ae906123b0565b6001600160a01b038416600090815260026020526040902060018101546005548590611cc79083906123fe565b611cd19190612319565b600555600182018590556040805182815260208101879052428183015290516001600160a01b038816917f0140b70cad70daf3e5b2fd740d1681c6cdbbed309f13fff92110eb0089d084d9919081900360600190a2505050505050565b600082815260208190526040902060010154611d4981611e49565b610bc28383611ee5565b60606004805480602002602001604051908101604052809291908181526020018280548015611dab57602002820191906000526020600020905b81546001600160a01b03168152600190910190602001808311611d8d575b5050505050905090565b60008051602061246a833981519152611dcd81611e49565b816001600160a01b038116611df45760405162461bcd60e51b81526004016102ae9061225f565b611e0c60008051602061244a83398151915284610b9d565b60405142815233906001600160a01b038516907f6cfd44dd88bb75fb56510ed299e0612e75c6c834fae602cada3944aeb9fc00ef90602001610e86565b6113c78133612012565b6000611e5f83836113f9565b611edd576000838152602081815260408083206001600160a01b03861684529091529020805460ff19166001179055611e953390565b6001600160a01b0316826001600160a01b0316847f2f8788117e7eff1d82e926ec794901d17c78024a50270940304540a733656f0d60405160405180910390a45060016108f3565b5060006108f3565b6000611ef183836113f9565b15611edd576000838152602081815260408083206001600160a01b0386168085529252808320805460ff1916905551339286917ff6391f5c32d9c69d2a47ea670b442974b53935d1edc7fd64eb21e047a839171b9190a45060016108f3565b600260015403611f7357604051633ee5aeb560e01b815260040160405180910390fd5b6002600155565b6040516001600160a01b03838116602483015260448201839052610bfb91859182169063a9059cbb906064015b604051602081830303815290604052915060e01b6020820180516001600160e01b03838183161783525050505061204b565b6040516001600160a01b038481166024830152838116604483015260648201839052610bc29186918216906323b872dd90608401611fa7565b61201c82826113f9565b610fc45760405163e2517d3f60e01b81526001600160a01b0382166004820152602481018390526044016102ae565b600080602060008451602086016000885af18061206e576040513d6000823e3d81fd5b50506000513d91508115612086578060011415612093565b6001600160a01b0384163b155b15610bc257604051635274afe760e01b81526001600160a01b03851660048201526024016102ae565b6000602082840312156120ce57600080fd5b81356001600160e01b0319811681146120e657600080fd5b9392505050565b80356001600160a01b038116811461210457600080fd5b919050565b60006020828403121561211b57600080fd5b6120e6826120ed565b6000806040838503121561213757600080fd5b612140836120ed565b946020939093013593505050565b60006020828403121561216057600080fd5b5035919050565b6000806040838503121561217a57600080fd5b8235915061218a602084016120ed565b90509250929050565b600080604083850312156121a657600080fd5b50508035926020909101359150565b6020808252825182820181905260009190848201906040850190845b818110156121f65783516001600160a01b0316835292840192918401916001016121d1565b50909695505050505050565b6020808252603c908201527f53747564656e74417373697374616e63655661756c743a2063616c6c6572206d60408201527f75737420686176652041444d494e206f7220535441464620726f6c6500000000606082015260800190565b60208082526027908201527f53747564656e74417373697374616e63655661756c743a20696e76616c6964206040820152666164647265737360c81b606082015260800190565b60208082526038908201527f53747564656e74417373697374616e63655661756c743a20616d6f756e74206d60408201527f7573742062652067726561746572207468616e207a65726f0000000000000000606082015260800190565b634e487b7160e01b600052601160045260246000fd5b808201808211156108f3576108f3612303565b634e487b7160e01b600052603260045260246000fd5b60006020828403121561235457600080fd5b5051919050565b60208082526035908201527f53747564656e74417373697374616e63655661756c743a20696e73756666696360408201527469656e7420636f6e74726163742062616c616e636560581b606082015260800190565b6020808252602e908201527f53747564656e74417373697374616e63655661756c743a2073747564656e742060408201526d1b9bdd081c9959da5cdd195c995960921b606082015260800190565b818103818111156108f3576108f3612303565b634e487b7160e01b600052603160045260246000fd5b60008261244457634e487b7160e01b600052601260045260246000fd5b50049056fe5620a1113a72b02a617976b3f6b15600dd7a8b3a916a9ca01e23119d989a0543a49807205ce4d355092ef5a8a18f56e8913cf4a201fbe287825b095693c21775a26469706673582212204f815980ec70d1dd16120c2cc0d7fae144579e767f5af8c74caf574db7fd6d0164736f6c6343000818003353747564656e74417373697374616e63655661756c743a20696e76616c696420",
  "linkReferences": {},
  "deployedLinkReferences": {}
}