{
  "_format": "hh-sol-artifact-1",
  "contractName": "RealDigitalDefaultAccount",
  "sourceName": "src/contracts/RealDigitalDefaultAccount.sol",
  "abi": [
    {
      "inputs": [
        {
          "internalType": "contract RealDigital",
          "name": "token",
          "type": "address"
        },
        {
          "internalType": "address",
          "name": "_authority",
          "type": "address"
        },
        {
          "internalType": "address",
          "name": "_admin",
          "type": "address"
        }
      ],
      "stateMutability": "nonpayable",
      "type": "constructor"
    },
    {
      "anonymous": false,
      "inputs": [
        {
          "indexed": true,
          "internalType": "bytes32",
          "name": "role",
          "type": "bytes32"
        },
        {
          "indexed": true,
          "internalType": "bytes32",
          "name": "previousAdminRole",
          "type": "bytes32"
        },
        {
          "indexed": true,
          "internalType": "bytes32",
          "name": "newAdminRole",
          "type": "bytes32"
        }
      ],
      "name": "RoleAdminChanged",
      "type": "event"
    },
    {
      "anonymous": false,
      "inputs": [
        {
          "indexed": true,
          "internalType": "bytes32",
          "name": "role",
          "type": "bytes32"
        },
        {
          "indexed": true,
          "internalType": "address",
          "name": "account",
          "type": "address"
        },
        {
          "indexed": true,
          "internalType": "address",
          "name": "sender",
          "type": "address"
        }
      ],
      "name": "RoleGranted",
      "type": "event"
    },
    {
      "anonymous": false,
      "inputs": [
        {
          "indexed": true,
          "internalType": "bytes32",
          "name": "role",
          "type": "bytes32"
        },
        {
          "indexed": true,
          "internalType": "address",
          "name": "account",
          "type": "address"
        },
        {
          "indexed": true,
          "internalType": "address",
          "name": "sender",
          "type": "address"
        }
      ],
      "name": "RoleRevoked",
      "type": "event"
    },
    {
      "inputs": [],
      "name": "DEFAULT_ADMIN_ROLE",
      "outputs": [
        {
          "internalType": "bytes32",
          "name": "",
          "type": "bytes32"
        }
      ],
      "stateMutability": "view",
      "type": "function"
    },
    {
      "inputs": [
        {
          "internalType": "uint256",
          "name": "cnpj8",
          "type": "uint256"
        },
        {
          "internalType": "address",
          "name": "wallet",
          "type": "address"
        }
      ],
      "name": "addDefaultAccount",
      "outputs": [],
      "stateMutability": "nonpayable",
      "type": "function"
    },
    {
      "inputs": [
        {
          "internalType": "uint256",
          "name": "cnpj8",
          "type": "uint256"
        }
      ],
      "name": "defaultAccount",
      "outputs": [
        {
          "internalType": "address",
          "name": "",
          "type": "address"
        }
      ],
      "stateMutability": "view",
      "type": "function"
    },
    {
      "inputs": [
        {
          "internalType": "bytes32",
          "name": "role",
          "type": "bytes32"
        }
      ],
      "name": "getRoleAdmin",
      "outputs": [
        {
          "internalType": "bytes32",
          "name": "",
          "type": "bytes32"
        }
      ],
      "stateMutability": "view",
      "type": "function"
    },
    {
      "inputs": [
        {
          "internalType": "bytes32",
          "name": "role",
          "type": "bytes32"
        },
        {
          "internalType": "address",
          "name": "account",
          "type": "address"
        }
      ],
      "name": "grantRole",
      "outputs": [],
      "stateMutability": "nonpayable",
      "type": "function"
    },
    {
      "inputs": [
        {
          "internalType": "bytes32",
          "name": "role",
          "type": "bytes32"
        },
        {
          "internalType": "address",
          "name": "account",
          "type": "address"
        }
      ],
      "name": "hasRole",
      "outputs": [
        {
          "internalType": "bool",
          "name": "",
          "type": "bool"
        }
      ],
      "stateMutability": "view",
      "type": "function"
    },
    {
      "inputs": [
        {
          "internalType": "bytes32",
          "name": "role",
          "type": "bytes32"
        },
        {
          "internalType": "address",
          "name": "account",
          "type": "address"
        }
      ],
      "name": "renounceRole",
      "outputs": [],
      "stateMutability": "nonpayable",
      "type": "function"
    },
    {
      "inputs": [
        {
          "internalType": "bytes32",
          "name": "role",
          "type": "bytes32"
        },
        {
          "internalType": "address",
          "name": "account",
          "type": "address"
        }
      ],
      "name": "revokeRole",
      "outputs": [],
      "stateMutability": "nonpayable",
      "type": "function"
    },
    {
      "inputs": [
        {
          "internalType": "bytes4",
          "name": "interfaceId",
          "type": "bytes4"
        }
      ],
      "name": "supportsInterface",
      "outputs": [
        {
          "internalType": "bool",
          "name": "",
          "type": "bool"
        }
      ],
      "stateMutability": "view",
      "type": "function"
    },
    {
      "inputs": [
        {
          "internalType": "uint256",
          "name": "cnpj8",
          "type": "uint256"
        },
        {
          "internalType": "address",
          "name": "newWallet",
          "type": "address"
        }
      ],
      "name": "updateDefaultWallet",
      "outputs": [],
      "stateMutability": "nonpayable",
      "type": "function"
    }
  ],
  "bytecode": "0x608060405234801561001057600080fd5b50604051610a96380380610a9683398101604081905261002f91610089565b600180546001600160a01b039485166001600160a01b0319918216179091556002805493851693821693909317909255600380549190931691161790556100d6565b6001600160a01b038116811461008657600080fd5b50565b60008060006060848603121561009e57600080fd5b83516100a981610071565b60208501519093506100ba81610071565b60408501519092506100cb81610071565b809150509250925092565b6109b1806100e56000396000f3fe608060405234801561001057600080fd5b506004361061009e5760003560e01c80634ebc9e59116100665780634ebc9e591461016557806391d14854146101785780639356cfc11461018b578063a217fddf1461019e578063d547741f146101a657600080fd5b806301ffc9a7146100a3578063248a9ca3146100cb5780632f2ff15d146100fc57806336568abe146101115780633f65c4a114610124575b600080fd5b6100b66100b136600461077f565b6101b9565b60405190151581526020015b60405180910390f35b6100ee6100d93660046107a9565b60009081526020819052604090206001015490565b6040519081526020016100c2565b61010f61010a3660046107de565b6101f0565b005b61010f61011f3660046107de565b61021a565b61014d6101323660046107a9565b6000908152600460205260409020546001600160a01b031690565b6040516001600160a01b0390911681526020016100c2565b61010f6101733660046107de565b61029d565b6100b66101863660046107de565b6103df565b61010f6101993660046107de565b610408565b6100ee600081565b61010f6101b43660046107de565b610456565b60006001600160e01b03198216637965db0b60e01b14806101ea57506301ffc9a760e01b6001600160e01b03198316145b92915050565b60008281526020819052604090206001015461020b8161047b565b6102158383610488565b505050565b6001600160a01b038116331461028f5760405162461bcd60e51b815260206004820152602f60248201527f416363657373436f6e74726f6c3a2063616e206f6e6c792072656e6f756e636560448201526e103937b632b9903337b91039b2b63360891b60648201526084015b60405180910390fd5b610299828261050c565b5050565b60015460405163f16dfbe960e01b81523360048201526001600160a01b039091169063f16dfbe990602401602060405180830381865afa1580156102e5573d6000803e3d6000fd5b505050506040513d601f19601f82011682018060405250810190610309919061080a565b61034b5760405162461bcd60e51b8152602060048201526013602482015272135d5cdd081899481c185c9d1a58da5c185b9d606a1b6044820152606401610286565b6000828152600460205260409020546001600160a01b031633146103b15760405162461bcd60e51b815260206004820152601f60248201527f4d7573742062652063757272656e742064656661756c74206163636f756e74006044820152606401610286565b60009182526004602052604090912080546001600160a01b0319166001600160a01b03909216919091179055565b6000918252602082815260408084206001600160a01b0393909316845291905290205460ff1690565b6002546001600160a01b031633146103b15760405162461bcd60e51b81526020600482015260116024820152704d75737420626520617574686f7269747960781b6044820152606401610286565b6000828152602081905260409020600101546104718161047b565b610215838361050c565b6104858133610571565b50565b61049282826103df565b610299576000828152602081815260408083206001600160a01b03851684529091529020805460ff191660011790556104c83390565b6001600160a01b0316816001600160a01b0316837f2f8788117e7eff1d82e926ec794901d17c78024a50270940304540a733656f0d60405160405180910390a45050565b61051682826103df565b15610299576000828152602081815260408083206001600160a01b0385168085529252808320805460ff1916905551339285917ff6391f5c32d9c69d2a47ea670b442974b53935d1edc7fd64eb21e047a839171b9190a45050565b61057b82826103df565b61029957610588816105ca565b6105938360206105dc565b6040516020016105a4929190610850565b60408051601f198184030181529082905262461bcd60e51b8252610286916004016108c5565b60606101ea6001600160a01b03831660145b606060006105eb83600261090e565b6105f6906002610925565b67ffffffffffffffff81111561060e5761060e610938565b6040519080825280601f01601f191660200182016040528015610638576020820181803683370190505b509050600360fc1b816000815181106106535761065361094e565b60200101906001600160f81b031916908160001a905350600f60fb1b816001815181106106825761068261094e565b60200101906001600160f81b031916908160001a90535060006106a684600261090e565b6106b1906001610925565b90505b6001811115610729576f181899199a1a9b1b9c1cb0b131b232b360811b85600f16601081106106e5576106e561094e565b1a60f81b8282815181106106fb576106fb61094e565b60200101906001600160f81b031916908160001a90535060049490941c9361072281610964565b90506106b4565b5083156107785760405162461bcd60e51b815260206004820181905260248201527f537472696e67733a20686578206c656e67746820696e73756666696369656e746044820152606401610286565b9392505050565b60006020828403121561079157600080fd5b81356001600160e01b03198116811461077857600080fd5b6000602082840312156107bb57600080fd5b5035919050565b80356001600160a01b03811681146107d957600080fd5b919050565b600080604083850312156107f157600080fd5b82359150610801602084016107c2565b90509250929050565b60006020828403121561081c57600080fd5b8151801515811461077857600080fd5b60005b8381101561084757818101518382015260200161082f565b50506000910152565b7f416363657373436f6e74726f6c3a206163636f756e742000000000000000000081526000835161088881601785016020880161082c565b7001034b99036b4b9b9b4b733903937b6329607d1b60179184019182015283516108b981602884016020880161082c565b01602801949350505050565b60208152600082518060208401526108e481604085016020870161082c565b601f01601f19169190910160400192915050565b634e487b7160e01b600052601160045260246000fd5b80820281158282048414176101ea576101ea6108f8565b808201808211156101ea576101ea6108f8565b634e487b7160e01b600052604160045260246000fd5b634e487b7160e01b600052603260045260246000fd5b600081610973576109736108f8565b50600019019056fea2646970667358221220e5830864887d59646f91b8b73c5a76ee5392ef0be7dd44992530ed7a6e94d30d64736f6c63430008130033",
  "linkReferences": {},
  "deployedLinkReferences": {}
}